{"contracts/Voting.sol":{"Voting":{"abi":[{"inputs":[],"stateMutability":"nonpayable","type":"constructor"},{"anonymous":false,"inputs":[{"indexed":false,"internalType":"string","name":"firstName","type":"string"},{"indexed":false,"internalType":"string","name":"lastName","type":"string"},{"indexed":false,"internalType":"uint256","name":"id","type":"uint256"}],"name":"CandidateRegistered","type":"event"},{"anonymous":false,"inputs":[{"indexed":true,"internalType":"address","name":"previousOwner","type":"address"},{"indexed":true,"internalType":"address","name":"newOwner","type":"address"}],"name":"OwnershipTransferred","type":"event"},{"anonymous":false,"inputs":[{"indexed":false,"internalType":"string","name":"firstName","type":"string"},{"indexed":false,"internalType":"uint256","name":"id","type":"uint256"}],"name":"VoterRegistered","type":"event"},{"anonymous":false,"inputs":[{"indexed":false,"internalType":"string","name":"firstName","type":"string"},{"indexed":false,"internalType":"string","name":"lastName","type":"string"},{"indexed":false,"internalType":"uint256","name":"voteCount","type":"uint256"}],"name":"WinnerAnnounced","type":"event"},{"inputs":[],"name":"VotingStage","outputs":[{"internalType":"enum Voting.Stage","name":"","type":"uint8"}],"stateMutability":"view","type":"function"},{"inputs":[],"name":"candidateIds","outputs":[{"internalType":"uint256","name":"_value","type":"uint256"}],"stateMutability":"view","type":"function"},{"inputs":[],"name":"finishVoting","outputs":[],"stateMutability":"nonpayable","type":"function"},{"inputs":[],"name":"getCandidates","outputs":[{"components":[{"internalType":"string","name":"firstName","type":"string"},{"internalType":"string","name":"lastName","type":"string"},{"internalType":"uint256","name":"voteCount","type":"uint256"}],"internalType":"struct Voting.Candidate[]","name":"","type":"tuple[]"}],"stateMutability":"view","type":"function"},{"inputs":[],"name":"getWinner","outputs":[{"components":[{"internalType":"string","name":"firstName","type":"string"},{"internalType":"string","name":"lastName","type":"string"},{"internalType":"uint256","name":"voteCount","type":"uint256"}],"internalType":"struct Voting.Candidate","name":"","type":"tuple"}],"stateMutability":"view","type":"function"},{"inputs":[{"internalType":"string","name":"_Name","type":"string"},{"internalType":"uint256","name":"_id","type":"uint256"}],"name":"hasVoted","outputs":[{"internalType":"bool","name":"","type":"bool"}],"stateMutability":"view","type":"function"},{"inputs":[{"internalType":"bytes32","name":"","type":"bytes32"}],"name":"isCandidateRegistered","outputs":[{"internalType":"bool","name":"","type":"bool"}],"stateMutability":"view","type":"function"},{"inputs":[{"internalType":"string","name":"_Name","type":"string"},{"internalType":"uint256","name":"_id","type":"uint256"}],"name":"isVoterRegistered","outputs":[{"internalType":"bool","name":"","type":"bool"}],"stateMutability":"view","type":"function"},{"inputs":[],"name":"owner","outputs":[{"internalType":"address","name":"","type":"address"}],"stateMutability":"view","type":"function"},{"inputs":[{"internalType":"string","name":"_firstName","type":"string"},{"internalType":"string","name":"_lastName","type":"string"}],"name":"registerCandidate","outputs":[],"stateMutability":"nonpayable","type":"function"},{"inputs":[{"internalType":"string","name":"_Name","type":"string"},{"internalType":"uint256","name":"_id","type":"uint256"}],"name":"registerVoter","outputs":[],"stateMutability":"nonpayable","type":"function"},{"inputs":[],"name":"renounceOwnership","outputs":[],"stateMutability":"nonpayable","type":"function"},{"inputs":[],"name":"startVoting","outputs":[],"stateMutability":"nonpayable","type":"function"},{"inputs":[],"name":"stopVoting","outputs":[],"stateMutability":"nonpayable","type":"function"},{"inputs":[{"internalType":"address","name":"newOwner","type":"address"}],"name":"transferOwnership","outputs":[],"stateMutability":"nonpayable","type":"function"},{"inputs":[{"internalType":"uint256","name":"_id","type":"uint256"},{"internalType":"string","name":"_voterName","type":"string"},{"internalType":"uint256","name":"_voterid","type":"uint256"}],"name":"vote","outputs":[],"stateMutability":"nonpayable","type":"function"},{"inputs":[],"name":"winner","outputs":[{"internalType":"string","name":"firstName","type":"string"},{"internalType":"string","name":"lastName","type":"string"},{"internalType":"uint256","name":"voteCount","type":"uint256"}],"stateMutability":"view","type":"function"}],"evm":{"bytecode":{"linkReferences":{},"object":"60806040523480156200001157600080fd5b5062000032620000266200006660201b60201c565b6200006e60201b60201c565b6000600960006101000a81548160ff021916908360028111156200005b576200005a62000132565b5b021790555062000161565b600033905090565b60008060009054906101000a900473ffffffffffffffffffffffffffffffffffffffff169050816000806101000a81548173ffffffffffffffffffffffffffffffffffffffff021916908373ffffffffffffffffffffffffffffffffffffffff1602179055508173ffffffffffffffffffffffffffffffffffffffff168173ffffffffffffffffffffffffffffffffffffffff167f8be0079c531659141344cd1fd0a4f28419497f9722a3daafe3b4186f6b6457e060405160405180910390a35050565b7f4e487b7100000000000000000000000000000000000000000000000000000000600052602160045260246000fd5b6127a380620001716000396000f3fe608060405234801561001057600080fd5b506004361061010b5760003560e01c8063ad2b657a116100a2578063e661ea5f11610071578063e661ea5f14610286578063f0f45457146102a2578063f2fde38b146102be578063f9094303146102da578063fab2f86b146102e45761010b565b8063ad2b657a146101e8578063cee7880714610206578063dfbf53ae14610236578063e4c20b1c146102565761010b565b80636c093e7e116100de5780636c093e7e14610172578063715018a6146101a25780638da5cb5b146101ac5780638e7ea5b2146101ca5761010b565b806306a49fce146101105780630dbce4dd1461012e5780631ec6b60a1461014a5780633772eeba14610154575b600080fd5b6101186102ee565b6040516101259190611994565b60405180910390f35b61014860048036038101906101439190611a25565b6104fc565b005b6101526107c6565b005b61015c6107fb565b6040516101699190611b1d565b60405180910390f35b61018c60048036038101906101879190611b64565b61080e565b6040516101999190611bdf565b60405180910390f35b6101aa610927565b005b6101b461093b565b6040516101c19190611c3b565b60405180910390f35b6101d2610964565b6040516101df9190611cad565b60405180910390f35b6101f0610aac565b6040516101fd9190611cde565b60405180910390f35b610220600480360381019061021b9190611d2f565b610ab8565b60405161022d9190611bdf565b60405180910390f35b61023e610ad8565b60405161024d93929190611da6565b60405180910390f35b610270600480360381019061026b9190611b64565b610c00565b60405161027d9190611bdf565b60405180910390f35b6102a0600480360381019061029b9190611b64565b610c5b565b005b6102bc60048036038101906102b79190611deb565b610e35565b005b6102d860048036038101906102d39190611e8b565b61115d565b005b6102e26111e0565b005b6102ec6114b0565b005b606060006102fc60016114e5565b67ffffffffffffffff81111561031557610314611eb8565b5b60405190808252806020026020018201604052801561034e57816020015b61033b6117b1565b8152602001906001900390816103335790505b50905061036361035e60016114e5565b6114f3565b60005b61037060016114e5565b8110156104f457600660008281526020019081526020016000206040518060600160405290816000820180546103a590611f16565b80601f01602080910402602001604051908101604052809291908181526020018280546103d190611f16565b801561041e5780601f106103f35761010080835404028352916020019161041e565b820191906000526020600020905b81548152906001019060200180831161040157829003601f168201915b5050505050815260200160018201805461043790611f16565b80601f016020809104026020016040519081016040528092919081815260200182805461046390611f16565b80156104b05780601f10610485576101008083540402835291602001916104b0565b820191906000526020600020905b81548152906001019060200180831161049357829003601f168201915b505050505081526020016002820154815250508282815181106104d6576104d5611f47565b5b602002602001018190525080806104ec90611fa5565b915050610366565b508091505090565b61050461158c565b6000600281111561051857610517611aa6565b5b600960009054906101000a900460ff16600281111561053a57610539611aa6565b5b1461057a576040517f08c379a00000000000000000000000000000000000000000000000000000000081526004016105719061205f565b60405180910390fd5b60008484848460405160200161059394939291906120bb565b6040516020818303038152906040528051906020012090506005600082815260200190815260200160002060009054906101000a900460ff161561060c576040517f08c379a000000000000000000000000000000000000000000000000000000000815260040161060390612142565b60405180910390fd5b600061061860016114e5565b90506106596040518060400160405280600b81526020017f43616e64696461746549640000000000000000000000000000000000000000008152508261160a565b604051806060016040528087878080601f016020809104026020016040519081016040528093929190818152602001838380828437600081840152601f19601f82011690508083019250505050505050815260200185858080601f016020809104026020016040519081016040528093929190818152602001838380828437600081840152601f19601f8201169050808301925050505050505081526020016000815250600660008381526020019081526020016000206000820151816000019081610725919061230e565b50602082015181600101908161073b919061230e565b506040820151816002015590505061075360016116a6565b60016005600084815260200190815260200160002060006101000a81548160ff0219169083151502179055507f630c61cb55f1dc89f589fbe410605e5759f043dcb3f202ca3270b84a1567840086868686856040516107b69594939291906123e0565b60405180910390a1505050505050565b6107ce61158c565b6001600960006101000a81548160ff021916908360028111156107f4576107f3611aa6565b5b0217905550565b600960009054906101000a900460ff1681565b60008084848460405160200161082693929190612429565b60405160208183030381529060405280519060200120905060006008600083815260200190815260200160002060405180606001604052908160008201805461086e90611f16565b80601f016020809104026020016040519081016040528092919081815260200182805461089a90611f16565b80156108e75780601f106108bc576101008083540402835291602001916108e7565b820191906000526020600020905b8154815290600101906020018083116108ca57829003601f168201915b50505050508152602001600182015481526020016002820160009054906101000a900460ff16151515158152505090508060400151925050509392505050565b61092f61158c565b61093960006116bc565b565b60008060009054906101000a900473ffffffffffffffffffffffffffffffffffffffff16905090565b61096c6117b1565b600260405180606001604052908160008201805461098990611f16565b80601f01602080910402602001604051908101604052809291908181526020018280546109b590611f16565b8015610a025780601f106109d757610100808354040283529160200191610a02565b820191906000526020600020905b8154815290600101906020018083116109e557829003601f168201915b50505050508152602001600182018054610a1b90611f16565b80601f0160208091040260200160405190810160405280929190818152602001828054610a4790611f16565b8015610a945780601f10610a6957610100808354040283529160200191610a94565b820191906000526020600020905b815481529060010190602001808311610a7757829003601f168201915b50505050508152602001600282015481525050905090565b60018060000154905081565b60056020528060005260406000206000915054906101000a900460ff1681565b6002806000018054610ae990611f16565b80601f0160208091040260200160405190810160405280929190818152602001828054610b1590611f16565b8015610b625780601f10610b3757610100808354040283529160200191610b62565b820191906000526020600020905b815481529060010190602001808311610b4557829003601f168201915b505050505090806001018054610b7790611f16565b80601f0160208091040260200160405190810160405280929190818152602001828054610ba390611f16565b8015610bf05780601f10610bc557610100808354040283529160200191610bf0565b820191906000526020600020905b815481529060010190602001808311610bd357829003601f168201915b5050505050908060020154905083565b600080848484604051602001610c1893929190612429565b6040516020818303038152906040528051906020012090506007600082815260200190815260200160002060009054906101000a900460ff169150509392505050565b600280811115610c6e57610c6d611aa6565b5b600960009054906101000a900460ff166002811115610c9057610c8f611aa6565b5b14610e3057610ca0838383610c00565b15610ce0576040517f08c379a0000000000000000000000000000000000000000000000000000000008152600401610cd7906124a7565b60405180910390fd5b6000838383604051602001610cf793929190612429565b604051602081830303815290604052805190602001209050604051806060016040528085858080601f016020809104026020016040519081016040528093929190818152602001838380828437600081840152601f19601f82011690508083019250505050505050815260200183815260200160001515815250600860008381526020019081526020016000206000820151816000019081610d99919061230e565b506020820151816001015560408201518160020160006101000a81548160ff02191690831515021790555090505060016007600083815260200190815260200160002060006101000a81548160ff0219169083151502179055507feb1c9ba665af787ad540b47d28e45866b8254b9fbdcf92ca225be532cf2b60af848484604051610e2693929190612429565b60405180910390a1505b505050565b60016002811115610e4957610e48611aa6565b5b600960009054906101000a900460ff166002811115610e6b57610e6a611aa6565b5b14610eab576040517f08c379a0000000000000000000000000000000000000000000000000000000008152600401610ea290612513565b60405180910390fd5b610eb6838383610c00565b610ef5576040517f08c379a0000000000000000000000000000000000000000000000000000000008152600401610eec9061257f565b60405180910390fd5b610f0083838361080e565b15610f40576040517f08c379a0000000000000000000000000000000000000000000000000000000008152600401610f37906125eb565b60405180910390fd5b600060066000868152602001908152602001600020604051806060016040529081600082018054610f7090611f16565b80601f0160208091040260200160405190810160405280929190818152602001828054610f9c90611f16565b8015610fe95780601f10610fbe57610100808354040283529160200191610fe9565b820191906000526020600020905b815481529060010190602001808311610fcc57829003601f168201915b5050505050815260200160018201805461100290611f16565b80601f016020809104026020016040519081016040528092919081815260200182805461102e90611f16565b801561107b5780601f106110505761010080835404028352916020019161107b565b820191906000526020600020905b81548152906001019060200180831161105e57829003601f168201915b5050505050815260200160028201548152505090506001816040018181516110a3919061260b565b91508181525050806006600087815260200190815260200160002060008201518160000190816110d3919061230e565b5060208201518160010190816110e9919061230e565b5060408201518160020155905050600084848460405160200161110e93929190612429565b60405160208183030381529060405280519060200120905060016008600083815260200190815260200160002060020160006101000a81548160ff021916908315150217905550505050505050565b61116561158c565b600073ffffffffffffffffffffffffffffffffffffffff168173ffffffffffffffffffffffffffffffffffffffff16036111d4576040517f08c379a00000000000000000000000000000000000000000000000000000000081526004016111cb906126b1565b60405180910390fd5b6111dd816116bc565b50565b6111e861158c565b600160028111156111fc576111fb611aa6565b5b600960009054906101000a900460ff16600281111561121e5761121d611aa6565b5b1461125e576040517f08c379a000000000000000000000000000000000000000000000000000000000815260040161125590612513565b60405180910390fd5b6112666117b1565b60005b61127360016114e5565b8110156113fe578160400151600660008381526020019081526020016000206002015411156113eb57600660008281526020019081526020016000206040518060600160405290816000820180546112ca90611f16565b80601f01602080910402602001604051908101604052809291908181526020018280546112f690611f16565b80156113435780601f1061131857610100808354040283529160200191611343565b820191906000526020600020905b81548152906001019060200180831161132657829003601f168201915b5050505050815260200160018201805461135c90611f16565b80601f016020809104026020016040519081016040528092919081815260200182805461138890611f16565b80156113d55780601f106113aa576101008083540402835291602001916113d5565b820191906000526020600020905b8154815290600101906020018083116113b857829003601f168201915b5050505050815260200160028201548152505091505b80806113f690611fa5565b915050611269565b506002600960006101000a81548160ff0219169083600281111561142557611424611aa6565b5b02179055508060026000820151816000019081611442919061230e565b506020820151816001019081611458919061230e565b50604082015181600201559050507fa70bb05a99fa7571a79a585dbe312eb7dd830aa3c12c6338416f97bfb39d11628160000151826020015183604001516040516114a593929190611da6565b60405180910390a150565b6114b861158c565b6002600960006101000a81548160ff021916908360028111156114de576114dd611aa6565b5b0217905550565b600081600001549050919050565b611589816040516024016115079190611cde565b6040516020818303038152906040527ff82c50f1000000000000000000000000000000000000000000000000000000007bffffffffffffffffffffffffffffffffffffffffffffffffffffffff19166020820180517bffffffffffffffffffffffffffffffffffffffffffffffffffffffff8381831617835250505050611780565b50565b6115946117a9565b73ffffffffffffffffffffffffffffffffffffffff166115b261093b565b73ffffffffffffffffffffffffffffffffffffffff1614611608576040517f08c379a00000000000000000000000000000000000000000000000000000000081526004016115ff9061271d565b60405180910390fd5b565b6116a2828260405160240161162092919061273d565b6040516020818303038152906040527fb60e72cc000000000000000000000000000000000000000000000000000000007bffffffffffffffffffffffffffffffffffffffffffffffffffffffff19166020820180517bffffffffffffffffffffffffffffffffffffffffffffffffffffffff8381831617835250505050611780565b5050565b6001816000016000828254019250508190555050565b60008060009054906101000a900473ffffffffffffffffffffffffffffffffffffffff169050816000806101000a81548173ffffffffffffffffffffffffffffffffffffffff021916908373ffffffffffffffffffffffffffffffffffffffff1602179055508173ffffffffffffffffffffffffffffffffffffffff168173ffffffffffffffffffffffffffffffffffffffff167f8be0079c531659141344cd1fd0a4f28419497f9722a3daafe3b4186f6b6457e060405160405180910390a35050565b60008151905060006a636f6e736f6c652e6c6f679050602083016000808483855afa5050505050565b600033905090565b60405180606001604052806060815260200160608152602001600081525090565b600081519050919050565b600082825260208201905092915050565b6000819050602082019050919050565b600081519050919050565b600082825260208201905092915050565b60005b8381101561183857808201518184015260208101905061181d565b60008484015250505050565b6000601f19601f8301169050919050565b6000611860826117fe565b61186a8185611809565b935061187a81856020860161181a565b61188381611844565b840191505092915050565b6000819050919050565b6118a18161188e565b82525050565b600060608301600083015184820360008601526118c48282611855565b915050602083015184820360208601526118de8282611855565b91505060408301516118f36040860182611898565b508091505092915050565b600061190a83836118a7565b905092915050565b6000602082019050919050565b600061192a826117d2565b61193481856117dd565b935083602082028501611946856117ee565b8060005b85811015611982578484038952815161196385826118fe565b945061196e83611912565b925060208a0199505060018101905061194a565b50829750879550505050505092915050565b600060208201905081810360008301526119ae818461191f565b905092915050565b600080fd5b600080fd5b600080fd5b600080fd5b600080fd5b60008083601f8401126119e5576119e46119c0565b5b8235905067ffffffffffffffff811115611a0257611a016119c5565b5b602083019150836001820283011115611a1e57611a1d6119ca565b5b9250929050565b60008060008060408587031215611a3f57611a3e6119b6565b5b600085013567ffffffffffffffff811115611a5d57611a5c6119bb565b5b611a69878288016119cf565b9450945050602085013567ffffffffffffffff811115611a8c57611a8b6119bb565b5b611a98878288016119cf565b925092505092959194509250565b7f4e487b7100000000000000000000000000000000000000000000000000000000600052602160045260246000fd5b60038110611ae657611ae5611aa6565b5b50565b6000819050611af782611ad5565b919050565b6000611b0782611ae9565b9050919050565b611b1781611afc565b82525050565b6000602082019050611b326000830184611b0e565b92915050565b611b418161188e565b8114611b4c57600080fd5b50565b600081359050611b5e81611b38565b92915050565b600080600060408486031215611b7d57611b7c6119b6565b5b600084013567ffffffffffffffff811115611b9b57611b9a6119bb565b5b611ba7868287016119cf565b93509350506020611bba86828701611b4f565b9150509250925092565b60008115159050919050565b611bd981611bc4565b82525050565b6000602082019050611bf46000830184611bd0565b92915050565b600073ffffffffffffffffffffffffffffffffffffffff82169050919050565b6000611c2582611bfa565b9050919050565b611c3581611c1a565b82525050565b6000602082019050611c506000830184611c2c565b92915050565b60006060830160008301518482036000860152611c738282611855565b91505060208301518482036020860152611c8d8282611855565b9150506040830151611ca26040860182611898565b508091505092915050565b60006020820190508181036000830152611cc78184611c56565b905092915050565b611cd88161188e565b82525050565b6000602082019050611cf36000830184611ccf565b92915050565b6000819050919050565b611d0c81611cf9565b8114611d1757600080fd5b50565b600081359050611d2981611d03565b92915050565b600060208284031215611d4557611d446119b6565b5b6000611d5384828501611d1a565b91505092915050565b600082825260208201905092915050565b6000611d78826117fe565b611d828185611d5c565b9350611d9281856020860161181a565b611d9b81611844565b840191505092915050565b60006060820190508181036000830152611dc08186611d6d565b90508181036020830152611dd48185611d6d565b9050611de36040830184611ccf565b949350505050565b60008060008060608587031215611e0557611e046119b6565b5b6000611e1387828801611b4f565b945050602085013567ffffffffffffffff811115611e3457611e336119bb565b5b611e40878288016119cf565b93509350506040611e5387828801611b4f565b91505092959194509250565b611e6881611c1a565b8114611e7357600080fd5b50565b600081359050611e8581611e5f565b92915050565b600060208284031215611ea157611ea06119b6565b5b6000611eaf84828501611e76565b91505092915050565b7f4e487b7100000000000000000000000000000000000000000000000000000000600052604160045260246000fd5b7f4e487b7100000000000000000000000000000000000000000000000000000000600052602260045260246000fd5b60006002820490506001821680611f2e57607f821691505b602082108103611f4157611f40611ee7565b5b50919050565b7f4e487b7100000000000000000000000000000000000000000000000000000000600052603260045260246000fd5b7f4e487b7100000000000000000000000000000000000000000000000000000000600052601160045260246000fd5b6000611fb08261188e565b91507fffffffffffffffffffffffffffffffffffffffffffffffffffffffffffffffff8203611fe257611fe1611f76565b5b600182019050919050565b7f566f74696e672073746167652073686f756c6420626520494e495449414c495a60008201527f4544000000000000000000000000000000000000000000000000000000000000602082015250565b6000612049602283611d5c565b915061205482611fed565b604082019050919050565b600060208201905081810360008301526120788161203c565b9050919050565b82818337600083830152505050565b600061209a8385611d5c565b93506120a783858461207f565b6120b083611844565b840190509392505050565b600060408201905081810360008301526120d681868861208e565b905081810360208301526120eb81848661208e565b905095945050505050565b7f43616e64696461746520616c7265616479207265676973746572656400000000600082015250565b600061212c601c83611d5c565b9150612137826120f6565b602082019050919050565b6000602082019050818103600083015261215b8161211f565b9050919050565b60008190508160005260206000209050919050565b60006020601f8301049050919050565b600082821b905092915050565b6000600883026121c47fffffffffffffffffffffffffffffffffffffffffffffffffffffffffffffffff82612187565b6121ce8683612187565b95508019841693508086168417925050509392505050565b6000819050919050565b600061220b6122066122018461188e565b6121e6565b61188e565b9050919050565b6000819050919050565b612225836121f0565b61223961223182612212565b848454612194565b825550505050565b600090565b61224e612241565b61225981848461221c565b505050565b5b8181101561227d57612272600082612246565b60018101905061225f565b5050565b601f8211156122c25761229381612162565b61229c84612177565b810160208510156122ab578190505b6122bf6122b785612177565b83018261225e565b50505b505050565b600082821c905092915050565b60006122e5600019846008026122c7565b1980831691505092915050565b60006122fe83836122d4565b9150826002028217905092915050565b612317826117fe565b67ffffffffffffffff8111156123305761232f611eb8565b5b61233a8254611f16565b612345828285612281565b600060209050601f8311600181146123785760008415612366578287015190505b61237085826122f2565b8655506123d8565b601f19841661238686612162565b60005b828110156123ae57848901518255600182019150602085019450602081019050612389565b868310156123cb57848901516123c7601f8916826122d4565b8355505b6001600288020188555050505b505050505050565b600060608201905081810360008301526123fb81878961208e565b9050818103602083015261241081858761208e565b905061241f6040830184611ccf565b9695505050505050565b6000604082019050818103600083015261244481858761208e565b90506124536020830184611ccf565b949350505050565b7f566f74657220616c726561647920726567697374657265640000000000000000600082015250565b6000612491601883611d5c565b915061249c8261245b565b602082019050919050565b600060208201905081810360008301526124c081612484565b9050919050565b7f566f74696e6720686173206e6f74206265656e20737461727465640000000000600082015250565b60006124fd601b83611d5c565b9150612508826124c7565b602082019050919050565b6000602082019050818103600083015261252c816124f0565b9050919050565b7f566f746572206e6f742072656769737465726564000000000000000000000000600082015250565b6000612569601483611d5c565b915061257482612533565b602082019050919050565b600060208201905081810360008301526125988161255c565b9050919050565b7f566f7465722068617320766f7465640000000000000000000000000000000000600082015250565b60006125d5600f83611d5c565b91506125e08261259f565b602082019050919050565b60006020820190508181036000830152612604816125c8565b9050919050565b60006126168261188e565b91506126218361188e565b925082820190508082111561263957612638611f76565b5b92915050565b7f4f776e61626c653a206e6577206f776e657220697320746865207a65726f206160008201527f6464726573730000000000000000000000000000000000000000000000000000602082015250565b600061269b602683611d5c565b91506126a68261263f565b604082019050919050565b600060208201905081810360008301526126ca8161268e565b9050919050565b7f4f776e61626c653a2063616c6c6572206973206e6f7420746865206f776e6572600082015250565b6000612707602083611d5c565b9150612712826126d1565b602082019050919050565b60006020820190508181036000830152612736816126fa565b9050919050565b600060408201905081810360008301526127578185611d6d565b90506127666020830184611ccf565b939250505056fea264697066735822122025868ce7430eb897b2b3d3a314efde7972071ea75fb78be4a44d247f594f47ab64736f6c63430008110033","opcodes":"PUSH1 0x80 PUSH1 0x40 MSTORE CALLVALUE DUP1 ISZERO PUSH3 0x11 JUMPI PUSH1 0x0 DUP1 REVERT JUMPDEST POP PUSH3 0x32 PUSH3 0x26 PUSH3 0x66 PUSH1 0x20 SHL PUSH1 0x20 SHR JUMP JUMPDEST PUSH3 0x6E PUSH1 0x20 SHL PUSH1 0x20 SHR JUMP JUMPDEST PUSH1 0x0 PUSH1 0x9 PUSH1 0x0 PUSH2 0x100 EXP DUP2 SLOAD DUP2 PUSH1 0xFF MUL NOT AND SWAP1 DUP4 PUSH1 0x2 DUP2 GT ISZERO PUSH3 0x5B JUMPI PUSH3 0x5A PUSH3 0x132 JUMP JUMPDEST JUMPDEST MUL OR SWAP1 SSTORE POP PUSH3 0x161 JUMP JUMPDEST PUSH1 0x0 CALLER SWAP1 POP SWAP1 JUMP JUMPDEST PUSH1 0x0 DUP1 PUSH1 0x0 SWAP1 SLOAD SWAP1 PUSH2 0x100 EXP SWAP1 DIV PUSH20 0xFFFFFFFFFFFFFFFFFFFFFFFFFFFFFFFFFFFFFFFF AND SWAP1 POP DUP2 PUSH1 0x0 DUP1 PUSH2 0x100 EXP DUP2 SLOAD DUP2 PUSH20 0xFFFFFFFFFFFFFFFFFFFFFFFFFFFFFFFFFFFFFFFF MUL NOT AND SWAP1 DUP4 PUSH20 0xFFFFFFFFFFFFFFFFFFFFFFFFFFFFFFFFFFFFFFFF AND MUL OR SWAP1 SSTORE POP DUP2 PUSH20 0xFFFFFFFFFFFFFFFFFFFFFFFFFFFFFFFFFFFFFFFF AND DUP2 PUSH20 0xFFFFFFFFFFFFFFFFFFFFFFFFFFFFFFFFFFFFFFFF AND PUSH32 0x8BE0079C531659141344CD1FD0A4F28419497F9722A3DAAFE3B4186F6B6457E0 PUSH1 0x40 MLOAD PUSH1 0x40 MLOAD DUP1 SWAP2 SUB SWAP1 LOG3 POP POP JUMP JUMPDEST PUSH32 0x4E487B7100000000000000000000000000000000000000000000000000000000 PUSH1 0x0 MSTORE PUSH1 0x21 PUSH1 0x4 MSTORE PUSH1 0x24 PUSH1 0x0 REVERT JUMPDEST PUSH2 0x27A3 DUP1 PUSH3 0x171 PUSH1 0x0 CODECOPY PUSH1 0x0 RETURN INVALID PUSH1 0x80 PUSH1 0x40 MSTORE CALLVALUE DUP1 ISZERO PUSH2 0x10 JUMPI PUSH1 0x0 DUP1 REVERT JUMPDEST POP PUSH1 0x4 CALLDATASIZE LT PUSH2 0x10B JUMPI PUSH1 0x0 CALLDATALOAD PUSH1 0xE0 SHR DUP1 PUSH4 0xAD2B657A GT PUSH2 0xA2 JUMPI DUP1 PUSH4 0xE661EA5F GT PUSH2 0x71 JUMPI DUP1 PUSH4 0xE661EA5F EQ PUSH2 0x286 JUMPI DUP1 PUSH4 0xF0F45457 EQ PUSH2 0x2A2 JUMPI DUP1 PUSH4 0xF2FDE38B EQ PUSH2 0x2BE JUMPI DUP1 PUSH4 0xF9094303 EQ PUSH2 0x2DA JUMPI DUP1 PUSH4 0xFAB2F86B EQ PUSH2 0x2E4 JUMPI PUSH2 0x10B JUMP JUMPDEST DUP1 PUSH4 0xAD2B657A EQ PUSH2 0x1E8 JUMPI DUP1 PUSH4 0xCEE78807 EQ PUSH2 0x206 JUMPI DUP1 PUSH4 0xDFBF53AE EQ PUSH2 0x236 JUMPI DUP1 PUSH4 0xE4C20B1C EQ PUSH2 0x256 JUMPI PUSH2 0x10B JUMP JUMPDEST DUP1 PUSH4 0x6C093E7E GT PUSH2 0xDE JUMPI DUP1 PUSH4 0x6C093E7E EQ PUSH2 0x172 JUMPI DUP1 PUSH4 0x715018A6 EQ PUSH2 0x1A2 JUMPI DUP1 PUSH4 0x8DA5CB5B EQ PUSH2 0x1AC JUMPI DUP1 PUSH4 0x8E7EA5B2 EQ PUSH2 0x1CA JUMPI PUSH2 0x10B JUMP JUMPDEST DUP1 PUSH4 0x6A49FCE EQ PUSH2 0x110 JUMPI DUP1 PUSH4 0xDBCE4DD EQ PUSH2 0x12E JUMPI DUP1 PUSH4 0x1EC6B60A EQ PUSH2 0x14A JUMPI DUP1 PUSH4 0x3772EEBA EQ PUSH2 0x154 JUMPI JUMPDEST PUSH1 0x0 DUP1 REVERT JUMPDEST PUSH2 0x118 PUSH2 0x2EE JUMP JUMPDEST PUSH1 0x40 MLOAD PUSH2 0x125 SWAP2 SWAP1 PUSH2 0x1994 JUMP JUMPDEST PUSH1 0x40 MLOAD DUP1 SWAP2 SUB SWAP1 RETURN JUMPDEST PUSH2 0x148 PUSH1 0x4 DUP1 CALLDATASIZE SUB DUP2 ADD SWAP1 PUSH2 0x143 SWAP2 SWAP1 PUSH2 0x1A25 JUMP JUMPDEST PUSH2 0x4FC JUMP JUMPDEST STOP JUMPDEST PUSH2 0x152 PUSH2 0x7C6 JUMP JUMPDEST STOP JUMPDEST PUSH2 0x15C PUSH2 0x7FB JUMP JUMPDEST PUSH1 0x40 MLOAD PUSH2 0x169 SWAP2 SWAP1 PUSH2 0x1B1D JUMP JUMPDEST PUSH1 0x40 MLOAD DUP1 SWAP2 SUB SWAP1 RETURN JUMPDEST PUSH2 0x18C PUSH1 0x4 DUP1 CALLDATASIZE SUB DUP2 ADD SWAP1 PUSH2 0x187 SWAP2 SWAP1 PUSH2 0x1B64 JUMP JUMPDEST PUSH2 0x80E JUMP JUMPDEST PUSH1 0x40 MLOAD PUSH2 0x199 SWAP2 SWAP1 PUSH2 0x1BDF JUMP JUMPDEST PUSH1 0x40 MLOAD DUP1 SWAP2 SUB SWAP1 RETURN JUMPDEST PUSH2 0x1AA PUSH2 0x927 JUMP JUMPDEST STOP JUMPDEST PUSH2 0x1B4 PUSH2 0x93B JUMP JUMPDEST PUSH1 0x40 MLOAD PUSH2 0x1C1 SWAP2 SWAP1 PUSH2 0x1C3B JUMP JUMPDEST PUSH1 0x40 MLOAD DUP1 SWAP2 SUB SWAP1 RETURN JUMPDEST PUSH2 0x1D2 PUSH2 0x964 JUMP JUMPDEST PUSH1 0x40 MLOAD PUSH2 0x1DF SWAP2 SWAP1 PUSH2 0x1CAD JUMP JUMPDEST PUSH1 0x40 MLOAD DUP1 SWAP2 SUB SWAP1 RETURN JUMPDEST PUSH2 0x1F0 PUSH2 0xAAC JUMP JUMPDEST PUSH1 0x40 MLOAD PUSH2 0x1FD SWAP2 SWAP1 PUSH2 0x1CDE JUMP JUMPDEST PUSH1 0x40 MLOAD DUP1 SWAP2 SUB SWAP1 RETURN JUMPDEST PUSH2 0x220 PUSH1 0x4 DUP1 CALLDATASIZE SUB DUP2 ADD SWAP1 PUSH2 0x21B SWAP2 SWAP1 PUSH2 0x1D2F JUMP JUMPDEST PUSH2 0xAB8 JUMP JUMPDEST PUSH1 0x40 MLOAD PUSH2 0x22D SWAP2 SWAP1 PUSH2 0x1BDF JUMP JUMPDEST PUSH1 0x40 MLOAD DUP1 SWAP2 SUB SWAP1 RETURN JUMPDEST PUSH2 0x23E PUSH2 0xAD8 JUMP JUMPDEST PUSH1 0x40 MLOAD PUSH2 0x24D SWAP4 SWAP3 SWAP2 SWAP1 PUSH2 0x1DA6 JUMP JUMPDEST PUSH1 0x40 MLOAD DUP1 SWAP2 SUB SWAP1 RETURN JUMPDEST PUSH2 0x270 PUSH1 0x4 DUP1 CALLDATASIZE SUB DUP2 ADD SWAP1 PUSH2 0x26B SWAP2 SWAP1 PUSH2 0x1B64 JUMP JUMPDEST PUSH2 0xC00 JUMP JUMPDEST PUSH1 0x40 MLOAD PUSH2 0x27D SWAP2 SWAP1 PUSH2 0x1BDF JUMP JUMPDEST PUSH1 0x40 MLOAD DUP1 SWAP2 SUB SWAP1 RETURN JUMPDEST PUSH2 0x2A0 PUSH1 0x4 DUP1 CALLDATASIZE SUB DUP2 ADD SWAP1 PUSH2 0x29B SWAP2 SWAP1 PUSH2 0x1B64 JUMP JUMPDEST PUSH2 0xC5B JUMP JUMPDEST STOP JUMPDEST PUSH2 0x2BC PUSH1 0x4 DUP1 CALLDATASIZE SUB DUP2 ADD SWAP1 PUSH2 0x2B7 SWAP2 SWAP1 PUSH2 0x1DEB JUMP JUMPDEST PUSH2 0xE35 JUMP JUMPDEST STOP JUMPDEST PUSH2 0x2D8 PUSH1 0x4 DUP1 CALLDATASIZE SUB DUP2 ADD SWAP1 PUSH2 0x2D3 SWAP2 SWAP1 PUSH2 0x1E8B JUMP JUMPDEST PUSH2 0x115D JUMP JUMPDEST STOP JUMPDEST PUSH2 0x2E2 PUSH2 0x11E0 JUMP JUMPDEST STOP JUMPDEST PUSH2 0x2EC PUSH2 0x14B0 JUMP JUMPDEST STOP JUMPDEST PUSH1 0x60 PUSH1 0x0 PUSH2 0x2FC PUSH1 0x1 PUSH2 0x14E5 JUMP JUMPDEST PUSH8 0xFFFFFFFFFFFFFFFF DUP2 GT ISZERO PUSH2 0x315 JUMPI PUSH2 0x314 PUSH2 0x1EB8 JUMP JUMPDEST JUMPDEST PUSH1 0x40 MLOAD SWAP1 DUP1 DUP3 MSTORE DUP1 PUSH1 0x20 MUL PUSH1 0x20 ADD DUP3 ADD PUSH1 0x40 MSTORE DUP1 ISZERO PUSH2 0x34E JUMPI DUP2 PUSH1 0x20 ADD JUMPDEST PUSH2 0x33B PUSH2 0x17B1 JUMP JUMPDEST DUP2 MSTORE PUSH1 0x20 ADD SWAP1 PUSH1 0x1 SWAP1 SUB SWAP1 DUP2 PUSH2 0x333 JUMPI SWAP1 POP JUMPDEST POP SWAP1 POP PUSH2 0x363 PUSH2 0x35E PUSH1 0x1 PUSH2 0x14E5 JUMP JUMPDEST PUSH2 0x14F3 JUMP JUMPDEST PUSH1 0x0 JUMPDEST PUSH2 0x370 PUSH1 0x1 PUSH2 0x14E5 JUMP JUMPDEST DUP2 LT ISZERO PUSH2 0x4F4 JUMPI PUSH1 0x6 PUSH1 0x0 DUP3 DUP2 MSTORE PUSH1 0x20 ADD SWAP1 DUP2 MSTORE PUSH1 0x20 ADD PUSH1 0x0 KECCAK256 PUSH1 0x40 MLOAD DUP1 PUSH1 0x60 ADD PUSH1 0x40 MSTORE SWAP1 DUP2 PUSH1 0x0 DUP3 ADD DUP1 SLOAD PUSH2 0x3A5 SWAP1 PUSH2 0x1F16 JUMP JUMPDEST DUP1 PUSH1 0x1F ADD PUSH1 0x20 DUP1 SWAP2 DIV MUL PUSH1 0x20 ADD PUSH1 0x40 MLOAD SWAP1 DUP2 ADD PUSH1 0x40 MSTORE DUP1 SWAP3 SWAP2 SWAP1 DUP2 DUP2 MSTORE PUSH1 0x20 ADD DUP3 DUP1 SLOAD PUSH2 0x3D1 SWAP1 PUSH2 0x1F16 JUMP JUMPDEST DUP1 ISZERO PUSH2 0x41E JUMPI DUP1 PUSH1 0x1F LT PUSH2 0x3F3 JUMPI PUSH2 0x100 DUP1 DUP4 SLOAD DIV MUL DUP4 MSTORE SWAP2 PUSH1 0x20 ADD SWAP2 PUSH2 0x41E JUMP JUMPDEST DUP3 ADD SWAP2 SWAP1 PUSH1 0x0 MSTORE PUSH1 0x20 PUSH1 0x0 KECCAK256 SWAP1 JUMPDEST DUP2 SLOAD DUP2 MSTORE SWAP1 PUSH1 0x1 ADD SWAP1 PUSH1 0x20 ADD DUP1 DUP4 GT PUSH2 0x401 JUMPI DUP3 SWAP1 SUB PUSH1 0x1F AND DUP3 ADD SWAP2 JUMPDEST POP POP POP POP POP DUP2 MSTORE PUSH1 0x20 ADD PUSH1 0x1 DUP3 ADD DUP1 SLOAD PUSH2 0x437 SWAP1 PUSH2 0x1F16 JUMP JUMPDEST DUP1 PUSH1 0x1F ADD PUSH1 0x20 DUP1 SWAP2 DIV MUL PUSH1 0x20 ADD PUSH1 0x40 MLOAD SWAP1 DUP2 ADD PUSH1 0x40 MSTORE DUP1 SWAP3 SWAP2 SWAP1 DUP2 DUP2 MSTORE PUSH1 0x20 ADD DUP3 DUP1 SLOAD PUSH2 0x463 SWAP1 PUSH2 0x1F16 JUMP JUMPDEST DUP1 ISZERO PUSH2 0x4B0 JUMPI DUP1 PUSH1 0x1F LT PUSH2 0x485 JUMPI PUSH2 0x100 DUP1 DUP4 SLOAD DIV MUL DUP4 MSTORE SWAP2 PUSH1 0x20 ADD SWAP2 PUSH2 0x4B0 JUMP JUMPDEST DUP3 ADD SWAP2 SWAP1 PUSH1 0x0 MSTORE PUSH1 0x20 PUSH1 0x0 KECCAK256 SWAP1 JUMPDEST DUP2 SLOAD DUP2 MSTORE SWAP1 PUSH1 0x1 ADD SWAP1 PUSH1 0x20 ADD DUP1 DUP4 GT PUSH2 0x493 JUMPI DUP3 SWAP1 SUB PUSH1 0x1F AND DUP3 ADD SWAP2 JUMPDEST POP POP POP POP POP DUP2 MSTORE PUSH1 0x20 ADD PUSH1 0x2 DUP3 ADD SLOAD DUP2 MSTORE POP POP DUP3 DUP3 DUP2 MLOAD DUP2 LT PUSH2 0x4D6 JUMPI PUSH2 0x4D5 PUSH2 0x1F47 JUMP JUMPDEST JUMPDEST PUSH1 0x20 MUL PUSH1 0x20 ADD ADD DUP2 SWAP1 MSTORE POP DUP1 DUP1 PUSH2 0x4EC SWAP1 PUSH2 0x1FA5 JUMP JUMPDEST SWAP2 POP POP PUSH2 0x366 JUMP JUMPDEST POP DUP1 SWAP2 POP POP SWAP1 JUMP JUMPDEST PUSH2 0x504 PUSH2 0x158C JUMP JUMPDEST PUSH1 0x0 PUSH1 0x2 DUP2 GT ISZERO PUSH2 0x518 JUMPI PUSH2 0x517 PUSH2 0x1AA6 JUMP JUMPDEST JUMPDEST PUSH1 0x9 PUSH1 0x0 SWAP1 SLOAD SWAP1 PUSH2 0x100 EXP SWAP1 DIV PUSH1 0xFF AND PUSH1 0x2 DUP2 GT ISZERO PUSH2 0x53A JUMPI PUSH2 0x539 PUSH2 0x1AA6 JUMP JUMPDEST JUMPDEST EQ PUSH2 0x57A JUMPI PUSH1 0x40 MLOAD PUSH32 0x8C379A000000000000000000000000000000000000000000000000000000000 DUP2 MSTORE PUSH1 0x4 ADD PUSH2 0x571 SWAP1 PUSH2 0x205F JUMP JUMPDEST PUSH1 0x40 MLOAD DUP1 SWAP2 SUB SWAP1 REVERT JUMPDEST PUSH1 0x0 DUP5 DUP5 DUP5 DUP5 PUSH1 0x40 MLOAD PUSH1 0x20 ADD PUSH2 0x593 SWAP5 SWAP4 SWAP3 SWAP2 SWAP1 PUSH2 0x20BB JUMP JUMPDEST PUSH1 0x40 MLOAD PUSH1 0x20 DUP2 DUP4 SUB SUB DUP2 MSTORE SWAP1 PUSH1 0x40 MSTORE DUP1 MLOAD SWAP1 PUSH1 0x20 ADD KECCAK256 SWAP1 POP PUSH1 0x5 PUSH1 0x0 DUP3 DUP2 MSTORE PUSH1 0x20 ADD SWAP1 DUP2 MSTORE PUSH1 0x20 ADD PUSH1 0x0 KECCAK256 PUSH1 0x0 SWAP1 SLOAD SWAP1 PUSH2 0x100 EXP SWAP1 DIV PUSH1 0xFF AND ISZERO PUSH2 0x60C JUMPI PUSH1 0x40 MLOAD PUSH32 0x8C379A000000000000000000000000000000000000000000000000000000000 DUP2 MSTORE PUSH1 0x4 ADD PUSH2 0x603 SWAP1 PUSH2 0x2142 JUMP JUMPDEST PUSH1 0x40 MLOAD DUP1 SWAP2 SUB SWAP1 REVERT JUMPDEST PUSH1 0x0 PUSH2 0x618 PUSH1 0x1 PUSH2 0x14E5 JUMP JUMPDEST SWAP1 POP PUSH2 0x659 PUSH1 0x40 MLOAD DUP1 PUSH1 0x40 ADD PUSH1 0x40 MSTORE DUP1 PUSH1 0xB DUP2 MSTORE PUSH1 0x20 ADD PUSH32 0x43616E6469646174654964000000000000000000000000000000000000000000 DUP2 MSTORE POP DUP3 PUSH2 0x160A JUMP JUMPDEST PUSH1 0x40 MLOAD DUP1 PUSH1 0x60 ADD PUSH1 0x40 MSTORE DUP1 DUP8 DUP8 DUP1 DUP1 PUSH1 0x1F ADD PUSH1 0x20 DUP1 SWAP2 DIV MUL PUSH1 0x20 ADD PUSH1 0x40 MLOAD SWAP1 DUP2 ADD PUSH1 0x40 MSTORE DUP1 SWAP4 SWAP3 SWAP2 SWAP1 DUP2 DUP2 MSTORE PUSH1 0x20 ADD DUP4 DUP4 DUP1 DUP3 DUP5 CALLDATACOPY PUSH1 0x0 DUP2 DUP5 ADD MSTORE PUSH1 0x1F NOT PUSH1 0x1F DUP3 ADD AND SWAP1 POP DUP1 DUP4 ADD SWAP3 POP POP POP POP POP POP POP DUP2 MSTORE PUSH1 0x20 ADD DUP6 DUP6 DUP1 DUP1 PUSH1 0x1F ADD PUSH1 0x20 DUP1 SWAP2 DIV MUL PUSH1 0x20 ADD PUSH1 0x40 MLOAD SWAP1 DUP2 ADD PUSH1 0x40 MSTORE DUP1 SWAP4 SWAP3 SWAP2 SWAP1 DUP2 DUP2 MSTORE PUSH1 0x20 ADD DUP4 DUP4 DUP1 DUP3 DUP5 CALLDATACOPY PUSH1 0x0 DUP2 DUP5 ADD MSTORE PUSH1 0x1F NOT PUSH1 0x1F DUP3 ADD AND SWAP1 POP DUP1 DUP4 ADD SWAP3 POP POP POP POP POP POP POP DUP2 MSTORE PUSH1 0x20 ADD PUSH1 0x0 DUP2 MSTORE POP PUSH1 0x6 PUSH1 0x0 DUP4 DUP2 MSTORE PUSH1 0x20 ADD SWAP1 DUP2 MSTORE PUSH1 0x20 ADD PUSH1 0x0 KECCAK256 PUSH1 0x0 DUP3 ADD MLOAD DUP2 PUSH1 0x0 ADD SWAP1 DUP2 PUSH2 0x725 SWAP2 SWAP1 PUSH2 0x230E JUMP JUMPDEST POP PUSH1 0x20 DUP3 ADD MLOAD DUP2 PUSH1 0x1 ADD SWAP1 DUP2 PUSH2 0x73B SWAP2 SWAP1 PUSH2 0x230E JUMP JUMPDEST POP PUSH1 0x40 DUP3 ADD MLOAD DUP2 PUSH1 0x2 ADD SSTORE SWAP1 POP POP PUSH2 0x753 PUSH1 0x1 PUSH2 0x16A6 JUMP JUMPDEST PUSH1 0x1 PUSH1 0x5 PUSH1 0x0 DUP5 DUP2 MSTORE PUSH1 0x20 ADD SWAP1 DUP2 MSTORE PUSH1 0x20 ADD PUSH1 0x0 KECCAK256 PUSH1 0x0 PUSH2 0x100 EXP DUP2 SLOAD DUP2 PUSH1 0xFF MUL NOT AND SWAP1 DUP4 ISZERO ISZERO MUL OR SWAP1 SSTORE POP PUSH32 0x630C61CB55F1DC89F589FBE410605E5759F043DCB3F202CA3270B84A15678400 DUP7 DUP7 DUP7 DUP7 DUP6 PUSH1 0x40 MLOAD PUSH2 0x7B6 SWAP6 SWAP5 SWAP4 SWAP3 SWAP2 SWAP1 PUSH2 0x23E0 JUMP JUMPDEST PUSH1 0x40 MLOAD DUP1 SWAP2 SUB SWAP1 LOG1 POP POP POP POP POP POP JUMP JUMPDEST PUSH2 0x7CE PUSH2 0x158C JUMP JUMPDEST PUSH1 0x1 PUSH1 0x9 PUSH1 0x0 PUSH2 0x100 EXP DUP2 SLOAD DUP2 PUSH1 0xFF MUL NOT AND SWAP1 DUP4 PUSH1 0x2 DUP2 GT ISZERO PUSH2 0x7F4 JUMPI PUSH2 0x7F3 PUSH2 0x1AA6 JUMP JUMPDEST JUMPDEST MUL OR SWAP1 SSTORE POP JUMP JUMPDEST PUSH1 0x9 PUSH1 0x0 SWAP1 SLOAD SWAP1 PUSH2 0x100 EXP SWAP1 DIV PUSH1 0xFF AND DUP2 JUMP JUMPDEST PUSH1 0x0 DUP1 DUP5 DUP5 DUP5 PUSH1 0x40 MLOAD PUSH1 0x20 ADD PUSH2 0x826 SWAP4 SWAP3 SWAP2 SWAP1 PUSH2 0x2429 JUMP JUMPDEST PUSH1 0x40 MLOAD PUSH1 0x20 DUP2 DUP4 SUB SUB DUP2 MSTORE SWAP1 PUSH1 0x40 MSTORE DUP1 MLOAD SWAP1 PUSH1 0x20 ADD KECCAK256 SWAP1 POP PUSH1 0x0 PUSH1 0x8 PUSH1 0x0 DUP4 DUP2 MSTORE PUSH1 0x20 ADD SWAP1 DUP2 MSTORE PUSH1 0x20 ADD PUSH1 0x0 KECCAK256 PUSH1 0x40 MLOAD DUP1 PUSH1 0x60 ADD PUSH1 0x40 MSTORE SWAP1 DUP2 PUSH1 0x0 DUP3 ADD DUP1 SLOAD PUSH2 0x86E SWAP1 PUSH2 0x1F16 JUMP JUMPDEST DUP1 PUSH1 0x1F ADD PUSH1 0x20 DUP1 SWAP2 DIV MUL PUSH1 0x20 ADD PUSH1 0x40 MLOAD SWAP1 DUP2 ADD PUSH1 0x40 MSTORE DUP1 SWAP3 SWAP2 SWAP1 DUP2 DUP2 MSTORE PUSH1 0x20 ADD DUP3 DUP1 SLOAD PUSH2 0x89A SWAP1 PUSH2 0x1F16 JUMP JUMPDEST DUP1 ISZERO PUSH2 0x8E7 JUMPI DUP1 PUSH1 0x1F LT PUSH2 0x8BC JUMPI PUSH2 0x100 DUP1 DUP4 SLOAD DIV MUL DUP4 MSTORE SWAP2 PUSH1 0x20 ADD SWAP2 PUSH2 0x8E7 JUMP JUMPDEST DUP3 ADD SWAP2 SWAP1 PUSH1 0x0 MSTORE PUSH1 0x20 PUSH1 0x0 KECCAK256 SWAP1 JUMPDEST DUP2 SLOAD DUP2 MSTORE SWAP1 PUSH1 0x1 ADD SWAP1 PUSH1 0x20 ADD DUP1 DUP4 GT PUSH2 0x8CA JUMPI DUP3 SWAP1 SUB PUSH1 0x1F AND DUP3 ADD SWAP2 JUMPDEST POP POP POP POP POP DUP2 MSTORE PUSH1 0x20 ADD PUSH1 0x1 DUP3 ADD SLOAD DUP2 MSTORE PUSH1 0x20 ADD PUSH1 0x2 DUP3 ADD PUSH1 0x0 SWAP1 SLOAD SWAP1 PUSH2 0x100 EXP SWAP1 DIV PUSH1 0xFF AND ISZERO ISZERO ISZERO ISZERO DUP2 MSTORE POP POP SWAP1 POP DUP1 PUSH1 0x40 ADD MLOAD SWAP3 POP POP POP SWAP4 SWAP3 POP POP POP JUMP JUMPDEST PUSH2 0x92F PUSH2 0x158C JUMP JUMPDEST PUSH2 0x939 PUSH1 0x0 PUSH2 0x16BC JUMP JUMPDEST JUMP JUMPDEST PUSH1 0x0 DUP1 PUSH1 0x0 SWAP1 SLOAD SWAP1 PUSH2 0x100 EXP SWAP1 DIV PUSH20 0xFFFFFFFFFFFFFFFFFFFFFFFFFFFFFFFFFFFFFFFF AND SWAP1 POP SWAP1 JUMP JUMPDEST PUSH2 0x96C PUSH2 0x17B1 JUMP JUMPDEST PUSH1 0x2 PUSH1 0x40 MLOAD DUP1 PUSH1 0x60 ADD PUSH1 0x40 MSTORE SWAP1 DUP2 PUSH1 0x0 DUP3 ADD DUP1 SLOAD PUSH2 0x989 SWAP1 PUSH2 0x1F16 JUMP JUMPDEST DUP1 PUSH1 0x1F ADD PUSH1 0x20 DUP1 SWAP2 DIV MUL PUSH1 0x20 ADD PUSH1 0x40 MLOAD SWAP1 DUP2 ADD PUSH1 0x40 MSTORE DUP1 SWAP3 SWAP2 SWAP1 DUP2 DUP2 MSTORE PUSH1 0x20 ADD DUP3 DUP1 SLOAD PUSH2 0x9B5 SWAP1 PUSH2 0x1F16 JUMP JUMPDEST DUP1 ISZERO PUSH2 0xA02 JUMPI DUP1 PUSH1 0x1F LT PUSH2 0x9D7 JUMPI PUSH2 0x100 DUP1 DUP4 SLOAD DIV MUL DUP4 MSTORE SWAP2 PUSH1 0x20 ADD SWAP2 PUSH2 0xA02 JUMP JUMPDEST DUP3 ADD SWAP2 SWAP1 PUSH1 0x0 MSTORE PUSH1 0x20 PUSH1 0x0 KECCAK256 SWAP1 JUMPDEST DUP2 SLOAD DUP2 MSTORE SWAP1 PUSH1 0x1 ADD SWAP1 PUSH1 0x20 ADD DUP1 DUP4 GT PUSH2 0x9E5 JUMPI DUP3 SWAP1 SUB PUSH1 0x1F AND DUP3 ADD SWAP2 JUMPDEST POP POP POP POP POP DUP2 MSTORE PUSH1 0x20 ADD PUSH1 0x1 DUP3 ADD DUP1 SLOAD PUSH2 0xA1B SWAP1 PUSH2 0x1F16 JUMP JUMPDEST DUP1 PUSH1 0x1F ADD PUSH1 0x20 DUP1 SWAP2 DIV MUL PUSH1 0x20 ADD PUSH1 0x40 MLOAD SWAP1 DUP2 ADD PUSH1 0x40 MSTORE DUP1 SWAP3 SWAP2 SWAP1 DUP2 DUP2 MSTORE PUSH1 0x20 ADD DUP3 DUP1 SLOAD PUSH2 0xA47 SWAP1 PUSH2 0x1F16 JUMP JUMPDEST DUP1 ISZERO PUSH2 0xA94 JUMPI DUP1 PUSH1 0x1F LT PUSH2 0xA69 JUMPI PUSH2 0x100 DUP1 DUP4 SLOAD DIV MUL DUP4 MSTORE SWAP2 PUSH1 0x20 ADD SWAP2 PUSH2 0xA94 JUMP JUMPDEST DUP3 ADD SWAP2 SWAP1 PUSH1 0x0 MSTORE PUSH1 0x20 PUSH1 0x0 KECCAK256 SWAP1 JUMPDEST DUP2 SLOAD DUP2 MSTORE SWAP1 PUSH1 0x1 ADD SWAP1 PUSH1 0x20 ADD DUP1 DUP4 GT PUSH2 0xA77 JUMPI DUP3 SWAP1 SUB PUSH1 0x1F AND DUP3 ADD SWAP2 JUMPDEST POP POP POP POP POP DUP2 MSTORE PUSH1 0x20 ADD PUSH1 0x2 DUP3 ADD SLOAD DUP2 MSTORE POP POP SWAP1 POP SWAP1 JUMP JUMPDEST PUSH1 0x1 DUP1 PUSH1 0x0 ADD SLOAD SWAP1 POP DUP2 JUMP JUMPDEST PUSH1 0x5 PUSH1 0x20 MSTORE DUP1 PUSH1 0x0 MSTORE PUSH1 0x40 PUSH1 0x0 KECCAK256 PUSH1 0x0 SWAP2 POP SLOAD SWAP1 PUSH2 0x100 EXP SWAP1 DIV PUSH1 0xFF AND DUP2 JUMP JUMPDEST PUSH1 0x2 DUP1 PUSH1 0x0 ADD DUP1 SLOAD PUSH2 0xAE9 SWAP1 PUSH2 0x1F16 JUMP JUMPDEST DUP1 PUSH1 0x1F ADD PUSH1 0x20 DUP1 SWAP2 DIV MUL PUSH1 0x20 ADD PUSH1 0x40 MLOAD SWAP1 DUP2 ADD PUSH1 0x40 MSTORE DUP1 SWAP3 SWAP2 SWAP1 DUP2 DUP2 MSTORE PUSH1 0x20 ADD DUP3 DUP1 SLOAD PUSH2 0xB15 SWAP1 PUSH2 0x1F16 JUMP JUMPDEST DUP1 ISZERO PUSH2 0xB62 JUMPI DUP1 PUSH1 0x1F LT PUSH2 0xB37 JUMPI PUSH2 0x100 DUP1 DUP4 SLOAD DIV MUL DUP4 MSTORE SWAP2 PUSH1 0x20 ADD SWAP2 PUSH2 0xB62 JUMP JUMPDEST DUP3 ADD SWAP2 SWAP1 PUSH1 0x0 MSTORE PUSH1 0x20 PUSH1 0x0 KECCAK256 SWAP1 JUMPDEST DUP2 SLOAD DUP2 MSTORE SWAP1 PUSH1 0x1 ADD SWAP1 PUSH1 0x20 ADD DUP1 DUP4 GT PUSH2 0xB45 JUMPI DUP3 SWAP1 SUB PUSH1 0x1F AND DUP3 ADD SWAP2 JUMPDEST POP POP POP POP POP SWAP1 DUP1 PUSH1 0x1 ADD DUP1 SLOAD PUSH2 0xB77 SWAP1 PUSH2 0x1F16 JUMP JUMPDEST DUP1 PUSH1 0x1F ADD PUSH1 0x20 DUP1 SWAP2 DIV MUL PUSH1 0x20 ADD PUSH1 0x40 MLOAD SWAP1 DUP2 ADD PUSH1 0x40 MSTORE DUP1 SWAP3 SWAP2 SWAP1 DUP2 DUP2 MSTORE PUSH1 0x20 ADD DUP3 DUP1 SLOAD PUSH2 0xBA3 SWAP1 PUSH2 0x1F16 JUMP JUMPDEST DUP1 ISZERO PUSH2 0xBF0 JUMPI DUP1 PUSH1 0x1F LT PUSH2 0xBC5 JUMPI PUSH2 0x100 DUP1 DUP4 SLOAD DIV MUL DUP4 MSTORE SWAP2 PUSH1 0x20 ADD SWAP2 PUSH2 0xBF0 JUMP JUMPDEST DUP3 ADD SWAP2 SWAP1 PUSH1 0x0 MSTORE PUSH1 0x20 PUSH1 0x0 KECCAK256 SWAP1 JUMPDEST DUP2 SLOAD DUP2 MSTORE SWAP1 PUSH1 0x1 ADD SWAP1 PUSH1 0x20 ADD DUP1 DUP4 GT PUSH2 0xBD3 JUMPI DUP3 SWAP1 SUB PUSH1 0x1F AND DUP3 ADD SWAP2 JUMPDEST POP POP POP POP POP SWAP1 DUP1 PUSH1 0x2 ADD SLOAD SWAP1 POP DUP4 JUMP JUMPDEST PUSH1 0x0 DUP1 DUP5 DUP5 DUP5 PUSH1 0x40 MLOAD PUSH1 0x20 ADD PUSH2 0xC18 SWAP4 SWAP3 SWAP2 SWAP1 PUSH2 0x2429 JUMP JUMPDEST PUSH1 0x40 MLOAD PUSH1 0x20 DUP2 DUP4 SUB SUB DUP2 MSTORE SWAP1 PUSH1 0x40 MSTORE DUP1 MLOAD SWAP1 PUSH1 0x20 ADD KECCAK256 SWAP1 POP PUSH1 0x7 PUSH1 0x0 DUP3 DUP2 MSTORE PUSH1 0x20 ADD SWAP1 DUP2 MSTORE PUSH1 0x20 ADD PUSH1 0x0 KECCAK256 PUSH1 0x0 SWAP1 SLOAD SWAP1 PUSH2 0x100 EXP SWAP1 DIV PUSH1 0xFF AND SWAP2 POP POP SWAP4 SWAP3 POP POP POP JUMP JUMPDEST PUSH1 0x2 DUP1 DUP2 GT ISZERO PUSH2 0xC6E JUMPI PUSH2 0xC6D PUSH2 0x1AA6 JUMP JUMPDEST JUMPDEST PUSH1 0x9 PUSH1 0x0 SWAP1 SLOAD SWAP1 PUSH2 0x100 EXP SWAP1 DIV PUSH1 0xFF AND PUSH1 0x2 DUP2 GT ISZERO PUSH2 0xC90 JUMPI PUSH2 0xC8F PUSH2 0x1AA6 JUMP JUMPDEST JUMPDEST EQ PUSH2 0xE30 JUMPI PUSH2 0xCA0 DUP4 DUP4 DUP4 PUSH2 0xC00 JUMP JUMPDEST ISZERO PUSH2 0xCE0 JUMPI PUSH1 0x40 MLOAD PUSH32 0x8C379A000000000000000000000000000000000000000000000000000000000 DUP2 MSTORE PUSH1 0x4 ADD PUSH2 0xCD7 SWAP1 PUSH2 0x24A7 JUMP JUMPDEST PUSH1 0x40 MLOAD DUP1 SWAP2 SUB SWAP1 REVERT JUMPDEST PUSH1 0x0 DUP4 DUP4 DUP4 PUSH1 0x40 MLOAD PUSH1 0x20 ADD PUSH2 0xCF7 SWAP4 SWAP3 SWAP2 SWAP1 PUSH2 0x2429 JUMP JUMPDEST PUSH1 0x40 MLOAD PUSH1 0x20 DUP2 DUP4 SUB SUB DUP2 MSTORE SWAP1 PUSH1 0x40 MSTORE DUP1 MLOAD SWAP1 PUSH1 0x20 ADD KECCAK256 SWAP1 POP PUSH1 0x40 MLOAD DUP1 PUSH1 0x60 ADD PUSH1 0x40 MSTORE DUP1 DUP6 DUP6 DUP1 DUP1 PUSH1 0x1F ADD PUSH1 0x20 DUP1 SWAP2 DIV MUL PUSH1 0x20 ADD PUSH1 0x40 MLOAD SWAP1 DUP2 ADD PUSH1 0x40 MSTORE DUP1 SWAP4 SWAP3 SWAP2 SWAP1 DUP2 DUP2 MSTORE PUSH1 0x20 ADD DUP4 DUP4 DUP1 DUP3 DUP5 CALLDATACOPY PUSH1 0x0 DUP2 DUP5 ADD MSTORE PUSH1 0x1F NOT PUSH1 0x1F DUP3 ADD AND SWAP1 POP DUP1 DUP4 ADD SWAP3 POP POP POP POP POP POP POP DUP2 MSTORE PUSH1 0x20 ADD DUP4 DUP2 MSTORE PUSH1 0x20 ADD PUSH1 0x0 ISZERO ISZERO DUP2 MSTORE POP PUSH1 0x8 PUSH1 0x0 DUP4 DUP2 MSTORE PUSH1 0x20 ADD SWAP1 DUP2 MSTORE PUSH1 0x20 ADD PUSH1 0x0 KECCAK256 PUSH1 0x0 DUP3 ADD MLOAD DUP2 PUSH1 0x0 ADD SWAP1 DUP2 PUSH2 0xD99 SWAP2 SWAP1 PUSH2 0x230E JUMP JUMPDEST POP PUSH1 0x20 DUP3 ADD MLOAD DUP2 PUSH1 0x1 ADD SSTORE PUSH1 0x40 DUP3 ADD MLOAD DUP2 PUSH1 0x2 ADD PUSH1 0x0 PUSH2 0x100 EXP DUP2 SLOAD DUP2 PUSH1 0xFF MUL NOT AND SWAP1 DUP4 ISZERO ISZERO MUL OR SWAP1 SSTORE POP SWAP1 POP POP PUSH1 0x1 PUSH1 0x7 PUSH1 0x0 DUP4 DUP2 MSTORE PUSH1 0x20 ADD SWAP1 DUP2 MSTORE PUSH1 0x20 ADD PUSH1 0x0 KECCAK256 PUSH1 0x0 PUSH2 0x100 EXP DUP2 SLOAD DUP2 PUSH1 0xFF MUL NOT AND SWAP1 DUP4 ISZERO ISZERO MUL OR SWAP1 SSTORE POP PUSH32 0xEB1C9BA665AF787AD540B47D28E45866B8254B9FBDCF92CA225BE532CF2B60AF DUP5 DUP5 DUP5 PUSH1 0x40 MLOAD PUSH2 0xE26 SWAP4 SWAP3 SWAP2 SWAP1 PUSH2 0x2429 JUMP JUMPDEST PUSH1 0x40 MLOAD DUP1 SWAP2 SUB SWAP1 LOG1 POP JUMPDEST POP POP POP JUMP JUMPDEST PUSH1 0x1 PUSH1 0x2 DUP2 GT ISZERO PUSH2 0xE49 JUMPI PUSH2 0xE48 PUSH2 0x1AA6 JUMP JUMPDEST JUMPDEST PUSH1 0x9 PUSH1 0x0 SWAP1 SLOAD SWAP1 PUSH2 0x100 EXP SWAP1 DIV PUSH1 0xFF AND PUSH1 0x2 DUP2 GT ISZERO PUSH2 0xE6B JUMPI PUSH2 0xE6A PUSH2 0x1AA6 JUMP JUMPDEST JUMPDEST EQ PUSH2 0xEAB JUMPI PUSH1 0x40 MLOAD PUSH32 0x8C379A000000000000000000000000000000000000000000000000000000000 DUP2 MSTORE PUSH1 0x4 ADD PUSH2 0xEA2 SWAP1 PUSH2 0x2513 JUMP JUMPDEST PUSH1 0x40 MLOAD DUP1 SWAP2 SUB SWAP1 REVERT JUMPDEST PUSH2 0xEB6 DUP4 DUP4 DUP4 PUSH2 0xC00 JUMP JUMPDEST PUSH2 0xEF5 JUMPI PUSH1 0x40 MLOAD PUSH32 0x8C379A000000000000000000000000000000000000000000000000000000000 DUP2 MSTORE PUSH1 0x4 ADD PUSH2 0xEEC SWAP1 PUSH2 0x257F JUMP JUMPDEST PUSH1 0x40 MLOAD DUP1 SWAP2 SUB SWAP1 REVERT JUMPDEST PUSH2 0xF00 DUP4 DUP4 DUP4 PUSH2 0x80E JUMP JUMPDEST ISZERO PUSH2 0xF40 JUMPI PUSH1 0x40 MLOAD PUSH32 0x8C379A000000000000000000000000000000000000000000000000000000000 DUP2 MSTORE PUSH1 0x4 ADD PUSH2 0xF37 SWAP1 PUSH2 0x25EB JUMP JUMPDEST PUSH1 0x40 MLOAD DUP1 SWAP2 SUB SWAP1 REVERT JUMPDEST PUSH1 0x0 PUSH1 0x6 PUSH1 0x0 DUP7 DUP2 MSTORE PUSH1 0x20 ADD SWAP1 DUP2 MSTORE PUSH1 0x20 ADD PUSH1 0x0 KECCAK256 PUSH1 0x40 MLOAD DUP1 PUSH1 0x60 ADD PUSH1 0x40 MSTORE SWAP1 DUP2 PUSH1 0x0 DUP3 ADD DUP1 SLOAD PUSH2 0xF70 SWAP1 PUSH2 0x1F16 JUMP JUMPDEST DUP1 PUSH1 0x1F ADD PUSH1 0x20 DUP1 SWAP2 DIV MUL PUSH1 0x20 ADD PUSH1 0x40 MLOAD SWAP1 DUP2 ADD PUSH1 0x40 MSTORE DUP1 SWAP3 SWAP2 SWAP1 DUP2 DUP2 MSTORE PUSH1 0x20 ADD DUP3 DUP1 SLOAD PUSH2 0xF9C SWAP1 PUSH2 0x1F16 JUMP JUMPDEST DUP1 ISZERO PUSH2 0xFE9 JUMPI DUP1 PUSH1 0x1F LT PUSH2 0xFBE JUMPI PUSH2 0x100 DUP1 DUP4 SLOAD DIV MUL DUP4 MSTORE SWAP2 PUSH1 0x20 ADD SWAP2 PUSH2 0xFE9 JUMP JUMPDEST DUP3 ADD SWAP2 SWAP1 PUSH1 0x0 MSTORE PUSH1 0x20 PUSH1 0x0 KECCAK256 SWAP1 JUMPDEST DUP2 SLOAD DUP2 MSTORE SWAP1 PUSH1 0x1 ADD SWAP1 PUSH1 0x20 ADD DUP1 DUP4 GT PUSH2 0xFCC JUMPI DUP3 SWAP1 SUB PUSH1 0x1F AND DUP3 ADD SWAP2 JUMPDEST POP POP POP POP POP DUP2 MSTORE PUSH1 0x20 ADD PUSH1 0x1 DUP3 ADD DUP1 SLOAD PUSH2 0x1002 SWAP1 PUSH2 0x1F16 JUMP JUMPDEST DUP1 PUSH1 0x1F ADD PUSH1 0x20 DUP1 SWAP2 DIV MUL PUSH1 0x20 ADD PUSH1 0x40 MLOAD SWAP1 DUP2 ADD PUSH1 0x40 MSTORE DUP1 SWAP3 SWAP2 SWAP1 DUP2 DUP2 MSTORE PUSH1 0x20 ADD DUP3 DUP1 SLOAD PUSH2 0x102E SWAP1 PUSH2 0x1F16 JUMP JUMPDEST DUP1 ISZERO PUSH2 0x107B JUMPI DUP1 PUSH1 0x1F LT PUSH2 0x1050 JUMPI PUSH2 0x100 DUP1 DUP4 SLOAD DIV MUL DUP4 MSTORE SWAP2 PUSH1 0x20 ADD SWAP2 PUSH2 0x107B JUMP JUMPDEST DUP3 ADD SWAP2 SWAP1 PUSH1 0x0 MSTORE PUSH1 0x20 PUSH1 0x0 KECCAK256 SWAP1 JUMPDEST DUP2 SLOAD DUP2 MSTORE SWAP1 PUSH1 0x1 ADD SWAP1 PUSH1 0x20 ADD DUP1 DUP4 GT PUSH2 0x105E JUMPI DUP3 SWAP1 SUB PUSH1 0x1F AND DUP3 ADD SWAP2 JUMPDEST POP POP POP POP POP DUP2 MSTORE PUSH1 0x20 ADD PUSH1 0x2 DUP3 ADD SLOAD DUP2 MSTORE POP POP SWAP1 POP PUSH1 0x1 DUP2 PUSH1 0x40 ADD DUP2 DUP2 MLOAD PUSH2 0x10A3 SWAP2 SWAP1 PUSH2 0x260B JUMP JUMPDEST SWAP2 POP DUP2 DUP2 MSTORE POP POP DUP1 PUSH1 0x6 PUSH1 0x0 DUP8 DUP2 MSTORE PUSH1 0x20 ADD SWAP1 DUP2 MSTORE PUSH1 0x20 ADD PUSH1 0x0 KECCAK256 PUSH1 0x0 DUP3 ADD MLOAD DUP2 PUSH1 0x0 ADD SWAP1 DUP2 PUSH2 0x10D3 SWAP2 SWAP1 PUSH2 0x230E JUMP JUMPDEST POP PUSH1 0x20 DUP3 ADD MLOAD DUP2 PUSH1 0x1 ADD SWAP1 DUP2 PUSH2 0x10E9 SWAP2 SWAP1 PUSH2 0x230E JUMP JUMPDEST POP PUSH1 0x40 DUP3 ADD MLOAD DUP2 PUSH1 0x2 ADD SSTORE SWAP1 POP POP PUSH1 0x0 DUP5 DUP5 DUP5 PUSH1 0x40 MLOAD PUSH1 0x20 ADD PUSH2 0x110E SWAP4 SWAP3 SWAP2 SWAP1 PUSH2 0x2429 JUMP JUMPDEST PUSH1 0x40 MLOAD PUSH1 0x20 DUP2 DUP4 SUB SUB DUP2 MSTORE SWAP1 PUSH1 0x40 MSTORE DUP1 MLOAD SWAP1 PUSH1 0x20 ADD KECCAK256 SWAP1 POP PUSH1 0x1 PUSH1 0x8 PUSH1 0x0 DUP4 DUP2 MSTORE PUSH1 0x20 ADD SWAP1 DUP2 MSTORE PUSH1 0x20 ADD PUSH1 0x0 KECCAK256 PUSH1 0x2 ADD PUSH1 0x0 PUSH2 0x100 EXP DUP2 SLOAD DUP2 PUSH1 0xFF MUL NOT AND SWAP1 DUP4 ISZERO ISZERO MUL OR SWAP1 SSTORE POP POP POP POP POP POP POP JUMP JUMPDEST PUSH2 0x1165 PUSH2 0x158C JUMP JUMPDEST PUSH1 0x0 PUSH20 0xFFFFFFFFFFFFFFFFFFFFFFFFFFFFFFFFFFFFFFFF AND DUP2 PUSH20 0xFFFFFFFFFFFFFFFFFFFFFFFFFFFFFFFFFFFFFFFF AND SUB PUSH2 0x11D4 JUMPI PUSH1 0x40 MLOAD PUSH32 0x8C379A000000000000000000000000000000000000000000000000000000000 DUP2 MSTORE PUSH1 0x4 ADD PUSH2 0x11CB SWAP1 PUSH2 0x26B1 JUMP JUMPDEST PUSH1 0x40 MLOAD DUP1 SWAP2 SUB SWAP1 REVERT JUMPDEST PUSH2 0x11DD DUP2 PUSH2 0x16BC JUMP JUMPDEST POP JUMP JUMPDEST PUSH2 0x11E8 PUSH2 0x158C JUMP JUMPDEST PUSH1 0x1 PUSH1 0x2 DUP2 GT ISZERO PUSH2 0x11FC JUMPI PUSH2 0x11FB PUSH2 0x1AA6 JUMP JUMPDEST JUMPDEST PUSH1 0x9 PUSH1 0x0 SWAP1 SLOAD SWAP1 PUSH2 0x100 EXP SWAP1 DIV PUSH1 0xFF AND PUSH1 0x2 DUP2 GT ISZERO PUSH2 0x121E JUMPI PUSH2 0x121D PUSH2 0x1AA6 JUMP JUMPDEST JUMPDEST EQ PUSH2 0x125E JUMPI PUSH1 0x40 MLOAD PUSH32 0x8C379A000000000000000000000000000000000000000000000000000000000 DUP2 MSTORE PUSH1 0x4 ADD PUSH2 0x1255 SWAP1 PUSH2 0x2513 JUMP JUMPDEST PUSH1 0x40 MLOAD DUP1 SWAP2 SUB SWAP1 REVERT JUMPDEST PUSH2 0x1266 PUSH2 0x17B1 JUMP JUMPDEST PUSH1 0x0 JUMPDEST PUSH2 0x1273 PUSH1 0x1 PUSH2 0x14E5 JUMP JUMPDEST DUP2 LT ISZERO PUSH2 0x13FE JUMPI DUP2 PUSH1 0x40 ADD MLOAD PUSH1 0x6 PUSH1 0x0 DUP4 DUP2 MSTORE PUSH1 0x20 ADD SWAP1 DUP2 MSTORE PUSH1 0x20 ADD PUSH1 0x0 KECCAK256 PUSH1 0x2 ADD SLOAD GT ISZERO PUSH2 0x13EB JUMPI PUSH1 0x6 PUSH1 0x0 DUP3 DUP2 MSTORE PUSH1 0x20 ADD SWAP1 DUP2 MSTORE PUSH1 0x20 ADD PUSH1 0x0 KECCAK256 PUSH1 0x40 MLOAD DUP1 PUSH1 0x60 ADD PUSH1 0x40 MSTORE SWAP1 DUP2 PUSH1 0x0 DUP3 ADD DUP1 SLOAD PUSH2 0x12CA SWAP1 PUSH2 0x1F16 JUMP JUMPDEST DUP1 PUSH1 0x1F ADD PUSH1 0x20 DUP1 SWAP2 DIV MUL PUSH1 0x20 ADD PUSH1 0x40 MLOAD SWAP1 DUP2 ADD PUSH1 0x40 MSTORE DUP1 SWAP3 SWAP2 SWAP1 DUP2 DUP2 MSTORE PUSH1 0x20 ADD DUP3 DUP1 SLOAD PUSH2 0x12F6 SWAP1 PUSH2 0x1F16 JUMP JUMPDEST DUP1 ISZERO PUSH2 0x1343 JUMPI DUP1 PUSH1 0x1F LT PUSH2 0x1318 JUMPI PUSH2 0x100 DUP1 DUP4 SLOAD DIV MUL DUP4 MSTORE SWAP2 PUSH1 0x20 ADD SWAP2 PUSH2 0x1343 JUMP JUMPDEST DUP3 ADD SWAP2 SWAP1 PUSH1 0x0 MSTORE PUSH1 0x20 PUSH1 0x0 KECCAK256 SWAP1 JUMPDEST DUP2 SLOAD DUP2 MSTORE SWAP1 PUSH1 0x1 ADD SWAP1 PUSH1 0x20 ADD DUP1 DUP4 GT PUSH2 0x1326 JUMPI DUP3 SWAP1 SUB PUSH1 0x1F AND DUP3 ADD SWAP2 JUMPDEST POP POP POP POP POP DUP2 MSTORE PUSH1 0x20 ADD PUSH1 0x1 DUP3 ADD DUP1 SLOAD PUSH2 0x135C SWAP1 PUSH2 0x1F16 JUMP JUMPDEST DUP1 PUSH1 0x1F ADD PUSH1 0x20 DUP1 SWAP2 DIV MUL PUSH1 0x20 ADD PUSH1 0x40 MLOAD SWAP1 DUP2 ADD PUSH1 0x40 MSTORE DUP1 SWAP3 SWAP2 SWAP1 DUP2 DUP2 MSTORE PUSH1 0x20 ADD DUP3 DUP1 SLOAD PUSH2 0x1388 SWAP1 PUSH2 0x1F16 JUMP JUMPDEST DUP1 ISZERO PUSH2 0x13D5 JUMPI DUP1 PUSH1 0x1F LT PUSH2 0x13AA JUMPI PUSH2 0x100 DUP1 DUP4 SLOAD DIV MUL DUP4 MSTORE SWAP2 PUSH1 0x20 ADD SWAP2 PUSH2 0x13D5 JUMP JUMPDEST DUP3 ADD SWAP2 SWAP1 PUSH1 0x0 MSTORE PUSH1 0x20 PUSH1 0x0 KECCAK256 SWAP1 JUMPDEST DUP2 SLOAD DUP2 MSTORE SWAP1 PUSH1 0x1 ADD SWAP1 PUSH1 0x20 ADD DUP1 DUP4 GT PUSH2 0x13B8 JUMPI DUP3 SWAP1 SUB PUSH1 0x1F AND DUP3 ADD SWAP2 JUMPDEST POP POP POP POP POP DUP2 MSTORE PUSH1 0x20 ADD PUSH1 0x2 DUP3 ADD SLOAD DUP2 MSTORE POP POP SWAP2 POP JUMPDEST DUP1 DUP1 PUSH2 0x13F6 SWAP1 PUSH2 0x1FA5 JUMP JUMPDEST SWAP2 POP POP PUSH2 0x1269 JUMP JUMPDEST POP PUSH1 0x2 PUSH1 0x9 PUSH1 0x0 PUSH2 0x100 EXP DUP2 SLOAD DUP2 PUSH1 0xFF MUL NOT AND SWAP1 DUP4 PUSH1 0x2 DUP2 GT ISZERO PUSH2 0x1425 JUMPI PUSH2 0x1424 PUSH2 0x1AA6 JUMP JUMPDEST JUMPDEST MUL OR SWAP1 SSTORE POP DUP1 PUSH1 0x2 PUSH1 0x0 DUP3 ADD MLOAD DUP2 PUSH1 0x0 ADD SWAP1 DUP2 PUSH2 0x1442 SWAP2 SWAP1 PUSH2 0x230E JUMP JUMPDEST POP PUSH1 0x20 DUP3 ADD MLOAD DUP2 PUSH1 0x1 ADD SWAP1 DUP2 PUSH2 0x1458 SWAP2 SWAP1 PUSH2 0x230E JUMP JUMPDEST POP PUSH1 0x40 DUP3 ADD MLOAD DUP2 PUSH1 0x2 ADD SSTORE SWAP1 POP POP PUSH32 0xA70BB05A99FA7571A79A585DBE312EB7DD830AA3C12C6338416F97BFB39D1162 DUP2 PUSH1 0x0 ADD MLOAD DUP3 PUSH1 0x20 ADD MLOAD DUP4 PUSH1 0x40 ADD MLOAD PUSH1 0x40 MLOAD PUSH2 0x14A5 SWAP4 SWAP3 SWAP2 SWAP1 PUSH2 0x1DA6 JUMP JUMPDEST PUSH1 0x40 MLOAD DUP1 SWAP2 SUB SWAP1 LOG1 POP JUMP JUMPDEST PUSH2 0x14B8 PUSH2 0x158C JUMP JUMPDEST PUSH1 0x2 PUSH1 0x9 PUSH1 0x0 PUSH2 0x100 EXP DUP2 SLOAD DUP2 PUSH1 0xFF MUL NOT AND SWAP1 DUP4 PUSH1 0x2 DUP2 GT ISZERO PUSH2 0x14DE JUMPI PUSH2 0x14DD PUSH2 0x1AA6 JUMP JUMPDEST JUMPDEST MUL OR SWAP1 SSTORE POP JUMP JUMPDEST PUSH1 0x0 DUP2 PUSH1 0x0 ADD SLOAD SWAP1 POP SWAP2 SWAP1 POP JUMP JUMPDEST PUSH2 0x1589 DUP2 PUSH1 0x40 MLOAD PUSH1 0x24 ADD PUSH2 0x1507 SWAP2 SWAP1 PUSH2 0x1CDE JUMP JUMPDEST PUSH1 0x40 MLOAD PUSH1 0x20 DUP2 DUP4 SUB SUB DUP2 MSTORE SWAP1 PUSH1 0x40 MSTORE PUSH32 0xF82C50F100000000000000000000000000000000000000000000000000000000 PUSH28 0xFFFFFFFFFFFFFFFFFFFFFFFFFFFFFFFFFFFFFFFFFFFFFFFFFFFFFFFF NOT AND PUSH1 0x20 DUP3 ADD DUP1 MLOAD PUSH28 0xFFFFFFFFFFFFFFFFFFFFFFFFFFFFFFFFFFFFFFFFFFFFFFFFFFFFFFFF DUP4 DUP2 DUP4 AND OR DUP4 MSTORE POP POP POP POP PUSH2 0x1780 JUMP JUMPDEST POP JUMP JUMPDEST PUSH2 0x1594 PUSH2 0x17A9 JUMP JUMPDEST PUSH20 0xFFFFFFFFFFFFFFFFFFFFFFFFFFFFFFFFFFFFFFFF AND PUSH2 0x15B2 PUSH2 0x93B JUMP JUMPDEST PUSH20 0xFFFFFFFFFFFFFFFFFFFFFFFFFFFFFFFFFFFFFFFF AND EQ PUSH2 0x1608 JUMPI PUSH1 0x40 MLOAD PUSH32 0x8C379A000000000000000000000000000000000000000000000000000000000 DUP2 MSTORE PUSH1 0x4 ADD PUSH2 0x15FF SWAP1 PUSH2 0x271D JUMP JUMPDEST PUSH1 0x40 MLOAD DUP1 SWAP2 SUB SWAP1 REVERT JUMPDEST JUMP JUMPDEST PUSH2 0x16A2 DUP3 DUP3 PUSH1 0x40 MLOAD PUSH1 0x24 ADD PUSH2 0x1620 SWAP3 SWAP2 SWAP1 PUSH2 0x273D JUMP JUMPDEST PUSH1 0x40 MLOAD PUSH1 0x20 DUP2 DUP4 SUB SUB DUP2 MSTORE SWAP1 PUSH1 0x40 MSTORE PUSH32 0xB60E72CC00000000000000000000000000000000000000000000000000000000 PUSH28 0xFFFFFFFFFFFFFFFFFFFFFFFFFFFFFFFFFFFFFFFFFFFFFFFFFFFFFFFF NOT AND PUSH1 0x20 DUP3 ADD DUP1 MLOAD PUSH28 0xFFFFFFFFFFFFFFFFFFFFFFFFFFFFFFFFFFFFFFFFFFFFFFFFFFFFFFFF DUP4 DUP2 DUP4 AND OR DUP4 MSTORE POP POP POP POP PUSH2 0x1780 JUMP JUMPDEST POP POP JUMP JUMPDEST PUSH1 0x1 DUP2 PUSH1 0x0 ADD PUSH1 0x0 DUP3 DUP3 SLOAD ADD SWAP3 POP POP DUP2 SWAP1 SSTORE POP POP JUMP JUMPDEST PUSH1 0x0 DUP1 PUSH1 0x0 SWAP1 SLOAD SWAP1 PUSH2 0x100 EXP SWAP1 DIV PUSH20 0xFFFFFFFFFFFFFFFFFFFFFFFFFFFFFFFFFFFFFFFF AND SWAP1 POP DUP2 PUSH1 0x0 DUP1 PUSH2 0x100 EXP DUP2 SLOAD DUP2 PUSH20 0xFFFFFFFFFFFFFFFFFFFFFFFFFFFFFFFFFFFFFFFF MUL NOT AND SWAP1 DUP4 PUSH20 0xFFFFFFFFFFFFFFFFFFFFFFFFFFFFFFFFFFFFFFFF AND MUL OR SWAP1 SSTORE POP DUP2 PUSH20 0xFFFFFFFFFFFFFFFFFFFFFFFFFFFFFFFFFFFFFFFF AND DUP2 PUSH20 0xFFFFFFFFFFFFFFFFFFFFFFFFFFFFFFFFFFFFFFFF AND PUSH32 0x8BE0079C531659141344CD1FD0A4F28419497F9722A3DAAFE3B4186F6B6457E0 PUSH1 0x40 MLOAD PUSH1 0x40 MLOAD DUP1 SWAP2 SUB SWAP1 LOG3 POP POP JUMP JUMPDEST PUSH1 0x0 DUP2 MLOAD SWAP1 POP PUSH1 0x0 PUSH11 0x636F6E736F6C652E6C6F67 SWAP1 POP PUSH1 0x20 DUP4 ADD PUSH1 0x0 DUP1 DUP5 DUP4 DUP6 GAS STATICCALL POP POP POP POP POP JUMP JUMPDEST PUSH1 0x0 CALLER SWAP1 POP SWAP1 JUMP JUMPDEST PUSH1 0x40 MLOAD DUP1 PUSH1 0x60 ADD PUSH1 0x40 MSTORE DUP1 PUSH1 0x60 DUP2 MSTORE PUSH1 0x20 ADD PUSH1 0x60 DUP2 MSTORE PUSH1 0x20 ADD PUSH1 0x0 DUP2 MSTORE POP SWAP1 JUMP JUMPDEST PUSH1 0x0 DUP2 MLOAD SWAP1 POP SWAP2 SWAP1 POP JUMP JUMPDEST PUSH1 0x0 DUP3 DUP3 MSTORE PUSH1 0x20 DUP3 ADD SWAP1 POP SWAP3 SWAP2 POP POP JUMP JUMPDEST PUSH1 0x0 DUP2 SWAP1 POP PUSH1 0x20 DUP3 ADD SWAP1 POP SWAP2 SWAP1 POP JUMP JUMPDEST PUSH1 0x0 DUP2 MLOAD SWAP1 POP SWAP2 SWAP1 POP JUMP JUMPDEST PUSH1 0x0 DUP3 DUP3 MSTORE PUSH1 0x20 DUP3 ADD SWAP1 POP SWAP3 SWAP2 POP POP JUMP JUMPDEST PUSH1 0x0 JUMPDEST DUP4 DUP2 LT ISZERO PUSH2 0x1838 JUMPI DUP1 DUP3 ADD MLOAD DUP2 DUP5 ADD MSTORE PUSH1 0x20 DUP2 ADD SWAP1 POP PUSH2 0x181D JUMP JUMPDEST PUSH1 0x0 DUP5 DUP5 ADD MSTORE POP POP POP POP JUMP JUMPDEST PUSH1 0x0 PUSH1 0x1F NOT PUSH1 0x1F DUP4 ADD AND SWAP1 POP SWAP2 SWAP1 POP JUMP JUMPDEST PUSH1 0x0 PUSH2 0x1860 DUP3 PUSH2 0x17FE JUMP JUMPDEST PUSH2 0x186A DUP2 DUP6 PUSH2 0x1809 JUMP JUMPDEST SWAP4 POP PUSH2 0x187A DUP2 DUP6 PUSH1 0x20 DUP7 ADD PUSH2 0x181A JUMP JUMPDEST PUSH2 0x1883 DUP2 PUSH2 0x1844 JUMP JUMPDEST DUP5 ADD SWAP2 POP POP SWAP3 SWAP2 POP POP JUMP JUMPDEST PUSH1 0x0 DUP2 SWAP1 POP SWAP2 SWAP1 POP JUMP JUMPDEST PUSH2 0x18A1 DUP2 PUSH2 0x188E JUMP JUMPDEST DUP3 MSTORE POP POP JUMP JUMPDEST PUSH1 0x0 PUSH1 0x60 DUP4 ADD PUSH1 0x0 DUP4 ADD MLOAD DUP5 DUP3 SUB PUSH1 0x0 DUP7 ADD MSTORE PUSH2 0x18C4 DUP3 DUP3 PUSH2 0x1855 JUMP JUMPDEST SWAP2 POP POP PUSH1 0x20 DUP4 ADD MLOAD DUP5 DUP3 SUB PUSH1 0x20 DUP7 ADD MSTORE PUSH2 0x18DE DUP3 DUP3 PUSH2 0x1855 JUMP JUMPDEST SWAP2 POP POP PUSH1 0x40 DUP4 ADD MLOAD PUSH2 0x18F3 PUSH1 0x40 DUP7 ADD DUP3 PUSH2 0x1898 JUMP JUMPDEST POP DUP1 SWAP2 POP POP SWAP3 SWAP2 POP POP JUMP JUMPDEST PUSH1 0x0 PUSH2 0x190A DUP4 DUP4 PUSH2 0x18A7 JUMP JUMPDEST SWAP1 POP SWAP3 SWAP2 POP POP JUMP JUMPDEST PUSH1 0x0 PUSH1 0x20 DUP3 ADD SWAP1 POP SWAP2 SWAP1 POP JUMP JUMPDEST PUSH1 0x0 PUSH2 0x192A DUP3 PUSH2 0x17D2 JUMP JUMPDEST PUSH2 0x1934 DUP2 DUP6 PUSH2 0x17DD JUMP JUMPDEST SWAP4 POP DUP4 PUSH1 0x20 DUP3 MUL DUP6 ADD PUSH2 0x1946 DUP6 PUSH2 0x17EE JUMP JUMPDEST DUP1 PUSH1 0x0 JUMPDEST DUP6 DUP2 LT ISZERO PUSH2 0x1982 JUMPI DUP5 DUP5 SUB DUP10 MSTORE DUP2 MLOAD PUSH2 0x1963 DUP6 DUP3 PUSH2 0x18FE JUMP JUMPDEST SWAP5 POP PUSH2 0x196E DUP4 PUSH2 0x1912 JUMP JUMPDEST SWAP3 POP PUSH1 0x20 DUP11 ADD SWAP10 POP POP PUSH1 0x1 DUP2 ADD SWAP1 POP PUSH2 0x194A JUMP JUMPDEST POP DUP3 SWAP8 POP DUP8 SWAP6 POP POP POP POP POP POP SWAP3 SWAP2 POP POP JUMP JUMPDEST PUSH1 0x0 PUSH1 0x20 DUP3 ADD SWAP1 POP DUP2 DUP2 SUB PUSH1 0x0 DUP4 ADD MSTORE PUSH2 0x19AE DUP2 DUP5 PUSH2 0x191F JUMP JUMPDEST SWAP1 POP SWAP3 SWAP2 POP POP JUMP JUMPDEST PUSH1 0x0 DUP1 REVERT JUMPDEST PUSH1 0x0 DUP1 REVERT JUMPDEST PUSH1 0x0 DUP1 REVERT JUMPDEST PUSH1 0x0 DUP1 REVERT JUMPDEST PUSH1 0x0 DUP1 REVERT JUMPDEST PUSH1 0x0 DUP1 DUP4 PUSH1 0x1F DUP5 ADD SLT PUSH2 0x19E5 JUMPI PUSH2 0x19E4 PUSH2 0x19C0 JUMP JUMPDEST JUMPDEST DUP3 CALLDATALOAD SWAP1 POP PUSH8 0xFFFFFFFFFFFFFFFF DUP2 GT ISZERO PUSH2 0x1A02 JUMPI PUSH2 0x1A01 PUSH2 0x19C5 JUMP JUMPDEST JUMPDEST PUSH1 0x20 DUP4 ADD SWAP2 POP DUP4 PUSH1 0x1 DUP3 MUL DUP4 ADD GT ISZERO PUSH2 0x1A1E JUMPI PUSH2 0x1A1D PUSH2 0x19CA JUMP JUMPDEST JUMPDEST SWAP3 POP SWAP3 SWAP1 POP JUMP JUMPDEST PUSH1 0x0 DUP1 PUSH1 0x0 DUP1 PUSH1 0x40 DUP6 DUP8 SUB SLT ISZERO PUSH2 0x1A3F JUMPI PUSH2 0x1A3E PUSH2 0x19B6 JUMP JUMPDEST JUMPDEST PUSH1 0x0 DUP6 ADD CALLDATALOAD PUSH8 0xFFFFFFFFFFFFFFFF DUP2 GT ISZERO PUSH2 0x1A5D JUMPI PUSH2 0x1A5C PUSH2 0x19BB JUMP JUMPDEST JUMPDEST PUSH2 0x1A69 DUP8 DUP3 DUP9 ADD PUSH2 0x19CF JUMP JUMPDEST SWAP5 POP SWAP5 POP POP PUSH1 0x20 DUP6 ADD CALLDATALOAD PUSH8 0xFFFFFFFFFFFFFFFF DUP2 GT ISZERO PUSH2 0x1A8C JUMPI PUSH2 0x1A8B PUSH2 0x19BB JUMP JUMPDEST JUMPDEST PUSH2 0x1A98 DUP8 DUP3 DUP9 ADD PUSH2 0x19CF JUMP JUMPDEST SWAP3 POP SWAP3 POP POP SWAP3 SWAP6 SWAP2 SWAP5 POP SWAP3 POP JUMP JUMPDEST PUSH32 0x4E487B7100000000000000000000000000000000000000000000000000000000 PUSH1 0x0 MSTORE PUSH1 0x21 PUSH1 0x4 MSTORE PUSH1 0x24 PUSH1 0x0 REVERT JUMPDEST PUSH1 0x3 DUP2 LT PUSH2 0x1AE6 JUMPI PUSH2 0x1AE5 PUSH2 0x1AA6 JUMP JUMPDEST JUMPDEST POP JUMP JUMPDEST PUSH1 0x0 DUP2 SWAP1 POP PUSH2 0x1AF7 DUP3 PUSH2 0x1AD5 JUMP JUMPDEST SWAP2 SWAP1 POP JUMP JUMPDEST PUSH1 0x0 PUSH2 0x1B07 DUP3 PUSH2 0x1AE9 JUMP JUMPDEST SWAP1 POP SWAP2 SWAP1 POP JUMP JUMPDEST PUSH2 0x1B17 DUP2 PUSH2 0x1AFC JUMP JUMPDEST DUP3 MSTORE POP POP JUMP JUMPDEST PUSH1 0x0 PUSH1 0x20 DUP3 ADD SWAP1 POP PUSH2 0x1B32 PUSH1 0x0 DUP4 ADD DUP5 PUSH2 0x1B0E JUMP JUMPDEST SWAP3 SWAP2 POP POP JUMP JUMPDEST PUSH2 0x1B41 DUP2 PUSH2 0x188E JUMP JUMPDEST DUP2 EQ PUSH2 0x1B4C JUMPI PUSH1 0x0 DUP1 REVERT JUMPDEST POP JUMP JUMPDEST PUSH1 0x0 DUP2 CALLDATALOAD SWAP1 POP PUSH2 0x1B5E DUP2 PUSH2 0x1B38 JUMP JUMPDEST SWAP3 SWAP2 POP POP JUMP JUMPDEST PUSH1 0x0 DUP1 PUSH1 0x0 PUSH1 0x40 DUP5 DUP7 SUB SLT ISZERO PUSH2 0x1B7D JUMPI PUSH2 0x1B7C PUSH2 0x19B6 JUMP JUMPDEST JUMPDEST PUSH1 0x0 DUP5 ADD CALLDATALOAD PUSH8 0xFFFFFFFFFFFFFFFF DUP2 GT ISZERO PUSH2 0x1B9B JUMPI PUSH2 0x1B9A PUSH2 0x19BB JUMP JUMPDEST JUMPDEST PUSH2 0x1BA7 DUP7 DUP3 DUP8 ADD PUSH2 0x19CF JUMP JUMPDEST SWAP4 POP SWAP4 POP POP PUSH1 0x20 PUSH2 0x1BBA DUP7 DUP3 DUP8 ADD PUSH2 0x1B4F JUMP JUMPDEST SWAP2 POP POP SWAP3 POP SWAP3 POP SWAP3 JUMP JUMPDEST PUSH1 0x0 DUP2 ISZERO ISZERO SWAP1 POP SWAP2 SWAP1 POP JUMP JUMPDEST PUSH2 0x1BD9 DUP2 PUSH2 0x1BC4 JUMP JUMPDEST DUP3 MSTORE POP POP JUMP JUMPDEST PUSH1 0x0 PUSH1 0x20 DUP3 ADD SWAP1 POP PUSH2 0x1BF4 PUSH1 0x0 DUP4 ADD DUP5 PUSH2 0x1BD0 JUMP JUMPDEST SWAP3 SWAP2 POP POP JUMP JUMPDEST PUSH1 0x0 PUSH20 0xFFFFFFFFFFFFFFFFFFFFFFFFFFFFFFFFFFFFFFFF DUP3 AND SWAP1 POP SWAP2 SWAP1 POP JUMP JUMPDEST PUSH1 0x0 PUSH2 0x1C25 DUP3 PUSH2 0x1BFA JUMP JUMPDEST SWAP1 POP SWAP2 SWAP1 POP JUMP JUMPDEST PUSH2 0x1C35 DUP2 PUSH2 0x1C1A JUMP JUMPDEST DUP3 MSTORE POP POP JUMP JUMPDEST PUSH1 0x0 PUSH1 0x20 DUP3 ADD SWAP1 POP PUSH2 0x1C50 PUSH1 0x0 DUP4 ADD DUP5 PUSH2 0x1C2C JUMP JUMPDEST SWAP3 SWAP2 POP POP JUMP JUMPDEST PUSH1 0x0 PUSH1 0x60 DUP4 ADD PUSH1 0x0 DUP4 ADD MLOAD DUP5 DUP3 SUB PUSH1 0x0 DUP7 ADD MSTORE PUSH2 0x1C73 DUP3 DUP3 PUSH2 0x1855 JUMP JUMPDEST SWAP2 POP POP PUSH1 0x20 DUP4 ADD MLOAD DUP5 DUP3 SUB PUSH1 0x20 DUP7 ADD MSTORE PUSH2 0x1C8D DUP3 DUP3 PUSH2 0x1855 JUMP JUMPDEST SWAP2 POP POP PUSH1 0x40 DUP4 ADD MLOAD PUSH2 0x1CA2 PUSH1 0x40 DUP7 ADD DUP3 PUSH2 0x1898 JUMP JUMPDEST POP DUP1 SWAP2 POP POP SWAP3 SWAP2 POP POP JUMP JUMPDEST PUSH1 0x0 PUSH1 0x20 DUP3 ADD SWAP1 POP DUP2 DUP2 SUB PUSH1 0x0 DUP4 ADD MSTORE PUSH2 0x1CC7 DUP2 DUP5 PUSH2 0x1C56 JUMP JUMPDEST SWAP1 POP SWAP3 SWAP2 POP POP JUMP JUMPDEST PUSH2 0x1CD8 DUP2 PUSH2 0x188E JUMP JUMPDEST DUP3 MSTORE POP POP JUMP JUMPDEST PUSH1 0x0 PUSH1 0x20 DUP3 ADD SWAP1 POP PUSH2 0x1CF3 PUSH1 0x0 DUP4 ADD DUP5 PUSH2 0x1CCF JUMP JUMPDEST SWAP3 SWAP2 POP POP JUMP JUMPDEST PUSH1 0x0 DUP2 SWAP1 POP SWAP2 SWAP1 POP JUMP JUMPDEST PUSH2 0x1D0C DUP2 PUSH2 0x1CF9 JUMP JUMPDEST DUP2 EQ PUSH2 0x1D17 JUMPI PUSH1 0x0 DUP1 REVERT JUMPDEST POP JUMP JUMPDEST PUSH1 0x0 DUP2 CALLDATALOAD SWAP1 POP PUSH2 0x1D29 DUP2 PUSH2 0x1D03 JUMP JUMPDEST SWAP3 SWAP2 POP POP JUMP JUMPDEST PUSH1 0x0 PUSH1 0x20 DUP3 DUP5 SUB SLT ISZERO PUSH2 0x1D45 JUMPI PUSH2 0x1D44 PUSH2 0x19B6 JUMP JUMPDEST JUMPDEST PUSH1 0x0 PUSH2 0x1D53 DUP5 DUP3 DUP6 ADD PUSH2 0x1D1A JUMP JUMPDEST SWAP2 POP POP SWAP3 SWAP2 POP POP JUMP JUMPDEST PUSH1 0x0 DUP3 DUP3 MSTORE PUSH1 0x20 DUP3 ADD SWAP1 POP SWAP3 SWAP2 POP POP JUMP JUMPDEST PUSH1 0x0 PUSH2 0x1D78 DUP3 PUSH2 0x17FE JUMP JUMPDEST PUSH2 0x1D82 DUP2 DUP6 PUSH2 0x1D5C JUMP JUMPDEST SWAP4 POP PUSH2 0x1D92 DUP2 DUP6 PUSH1 0x20 DUP7 ADD PUSH2 0x181A JUMP JUMPDEST PUSH2 0x1D9B DUP2 PUSH2 0x1844 JUMP JUMPDEST DUP5 ADD SWAP2 POP POP SWAP3 SWAP2 POP POP JUMP JUMPDEST PUSH1 0x0 PUSH1 0x60 DUP3 ADD SWAP1 POP DUP2 DUP2 SUB PUSH1 0x0 DUP4 ADD MSTORE PUSH2 0x1DC0 DUP2 DUP7 PUSH2 0x1D6D JUMP JUMPDEST SWAP1 POP DUP2 DUP2 SUB PUSH1 0x20 DUP4 ADD MSTORE PUSH2 0x1DD4 DUP2 DUP6 PUSH2 0x1D6D JUMP JUMPDEST SWAP1 POP PUSH2 0x1DE3 PUSH1 0x40 DUP4 ADD DUP5 PUSH2 0x1CCF JUMP JUMPDEST SWAP5 SWAP4 POP POP POP POP JUMP JUMPDEST PUSH1 0x0 DUP1 PUSH1 0x0 DUP1 PUSH1 0x60 DUP6 DUP8 SUB SLT ISZERO PUSH2 0x1E05 JUMPI PUSH2 0x1E04 PUSH2 0x19B6 JUMP JUMPDEST JUMPDEST PUSH1 0x0 PUSH2 0x1E13 DUP8 DUP3 DUP9 ADD PUSH2 0x1B4F JUMP JUMPDEST SWAP5 POP POP PUSH1 0x20 DUP6 ADD CALLDATALOAD PUSH8 0xFFFFFFFFFFFFFFFF DUP2 GT ISZERO PUSH2 0x1E34 JUMPI PUSH2 0x1E33 PUSH2 0x19BB JUMP JUMPDEST JUMPDEST PUSH2 0x1E40 DUP8 DUP3 DUP9 ADD PUSH2 0x19CF JUMP JUMPDEST SWAP4 POP SWAP4 POP POP PUSH1 0x40 PUSH2 0x1E53 DUP8 DUP3 DUP9 ADD PUSH2 0x1B4F JUMP JUMPDEST SWAP2 POP POP SWAP3 SWAP6 SWAP2 SWAP5 POP SWAP3 POP JUMP JUMPDEST PUSH2 0x1E68 DUP2 PUSH2 0x1C1A JUMP JUMPDEST DUP2 EQ PUSH2 0x1E73 JUMPI PUSH1 0x0 DUP1 REVERT JUMPDEST POP JUMP JUMPDEST PUSH1 0x0 DUP2 CALLDATALOAD SWAP1 POP PUSH2 0x1E85 DUP2 PUSH2 0x1E5F JUMP JUMPDEST SWAP3 SWAP2 POP POP JUMP JUMPDEST PUSH1 0x0 PUSH1 0x20 DUP3 DUP5 SUB SLT ISZERO PUSH2 0x1EA1 JUMPI PUSH2 0x1EA0 PUSH2 0x19B6 JUMP JUMPDEST JUMPDEST PUSH1 0x0 PUSH2 0x1EAF DUP5 DUP3 DUP6 ADD PUSH2 0x1E76 JUMP JUMPDEST SWAP2 POP POP SWAP3 SWAP2 POP POP JUMP JUMPDEST PUSH32 0x4E487B7100000000000000000000000000000000000000000000000000000000 PUSH1 0x0 MSTORE PUSH1 0x41 PUSH1 0x4 MSTORE PUSH1 0x24 PUSH1 0x0 REVERT JUMPDEST PUSH32 0x4E487B7100000000000000000000000000000000000000000000000000000000 PUSH1 0x0 MSTORE PUSH1 0x22 PUSH1 0x4 MSTORE PUSH1 0x24 PUSH1 0x0 REVERT JUMPDEST PUSH1 0x0 PUSH1 0x2 DUP3 DIV SWAP1 POP PUSH1 0x1 DUP3 AND DUP1 PUSH2 0x1F2E JUMPI PUSH1 0x7F DUP3 AND SWAP2 POP JUMPDEST PUSH1 0x20 DUP3 LT DUP2 SUB PUSH2 0x1F41 JUMPI PUSH2 0x1F40 PUSH2 0x1EE7 JUMP JUMPDEST JUMPDEST POP SWAP2 SWAP1 POP JUMP JUMPDEST PUSH32 0x4E487B7100000000000000000000000000000000000000000000000000000000 PUSH1 0x0 MSTORE PUSH1 0x32 PUSH1 0x4 MSTORE PUSH1 0x24 PUSH1 0x0 REVERT JUMPDEST PUSH32 0x4E487B7100000000000000000000000000000000000000000000000000000000 PUSH1 0x0 MSTORE PUSH1 0x11 PUSH1 0x4 MSTORE PUSH1 0x24 PUSH1 0x0 REVERT JUMPDEST PUSH1 0x0 PUSH2 0x1FB0 DUP3 PUSH2 0x188E JUMP JUMPDEST SWAP2 POP PUSH32 0xFFFFFFFFFFFFFFFFFFFFFFFFFFFFFFFFFFFFFFFFFFFFFFFFFFFFFFFFFFFFFFFF DUP3 SUB PUSH2 0x1FE2 JUMPI PUSH2 0x1FE1 PUSH2 0x1F76 JUMP JUMPDEST JUMPDEST PUSH1 0x1 DUP3 ADD SWAP1 POP SWAP2 SWAP1 POP JUMP JUMPDEST PUSH32 0x566F74696E672073746167652073686F756C6420626520494E495449414C495A PUSH1 0x0 DUP3 ADD MSTORE PUSH32 0x4544000000000000000000000000000000000000000000000000000000000000 PUSH1 0x20 DUP3 ADD MSTORE POP JUMP JUMPDEST PUSH1 0x0 PUSH2 0x2049 PUSH1 0x22 DUP4 PUSH2 0x1D5C JUMP JUMPDEST SWAP2 POP PUSH2 0x2054 DUP3 PUSH2 0x1FED JUMP JUMPDEST PUSH1 0x40 DUP3 ADD SWAP1 POP SWAP2 SWAP1 POP JUMP JUMPDEST PUSH1 0x0 PUSH1 0x20 DUP3 ADD SWAP1 POP DUP2 DUP2 SUB PUSH1 0x0 DUP4 ADD MSTORE PUSH2 0x2078 DUP2 PUSH2 0x203C JUMP JUMPDEST SWAP1 POP SWAP2 SWAP1 POP JUMP JUMPDEST DUP3 DUP2 DUP4 CALLDATACOPY PUSH1 0x0 DUP4 DUP4 ADD MSTORE POP POP POP JUMP JUMPDEST PUSH1 0x0 PUSH2 0x209A DUP4 DUP6 PUSH2 0x1D5C JUMP JUMPDEST SWAP4 POP PUSH2 0x20A7 DUP4 DUP6 DUP5 PUSH2 0x207F JUMP JUMPDEST PUSH2 0x20B0 DUP4 PUSH2 0x1844 JUMP JUMPDEST DUP5 ADD SWAP1 POP SWAP4 SWAP3 POP POP POP JUMP JUMPDEST PUSH1 0x0 PUSH1 0x40 DUP3 ADD SWAP1 POP DUP2 DUP2 SUB PUSH1 0x0 DUP4 ADD MSTORE PUSH2 0x20D6 DUP2 DUP7 DUP9 PUSH2 0x208E JUMP JUMPDEST SWAP1 POP DUP2 DUP2 SUB PUSH1 0x20 DUP4 ADD MSTORE PUSH2 0x20EB DUP2 DUP5 DUP7 PUSH2 0x208E JUMP JUMPDEST SWAP1 POP SWAP6 SWAP5 POP POP POP POP POP JUMP JUMPDEST PUSH32 0x43616E64696461746520616C7265616479207265676973746572656400000000 PUSH1 0x0 DUP3 ADD MSTORE POP JUMP JUMPDEST PUSH1 0x0 PUSH2 0x212C PUSH1 0x1C DUP4 PUSH2 0x1D5C JUMP JUMPDEST SWAP2 POP PUSH2 0x2137 DUP3 PUSH2 0x20F6 JUMP JUMPDEST PUSH1 0x20 DUP3 ADD SWAP1 POP SWAP2 SWAP1 POP JUMP JUMPDEST PUSH1 0x0 PUSH1 0x20 DUP3 ADD SWAP1 POP DUP2 DUP2 SUB PUSH1 0x0 DUP4 ADD MSTORE PUSH2 0x215B DUP2 PUSH2 0x211F JUMP JUMPDEST SWAP1 POP SWAP2 SWAP1 POP JUMP JUMPDEST PUSH1 0x0 DUP2 SWAP1 POP DUP2 PUSH1 0x0 MSTORE PUSH1 0x20 PUSH1 0x0 KECCAK256 SWAP1 POP SWAP2 SWAP1 POP JUMP JUMPDEST PUSH1 0x0 PUSH1 0x20 PUSH1 0x1F DUP4 ADD DIV SWAP1 POP SWAP2 SWAP1 POP JUMP JUMPDEST PUSH1 0x0 DUP3 DUP3 SHL SWAP1 POP SWAP3 SWAP2 POP POP JUMP JUMPDEST PUSH1 0x0 PUSH1 0x8 DUP4 MUL PUSH2 0x21C4 PUSH32 0xFFFFFFFFFFFFFFFFFFFFFFFFFFFFFFFFFFFFFFFFFFFFFFFFFFFFFFFFFFFFFFFF DUP3 PUSH2 0x2187 JUMP JUMPDEST PUSH2 0x21CE DUP7 DUP4 PUSH2 0x2187 JUMP JUMPDEST SWAP6 POP DUP1 NOT DUP5 AND SWAP4 POP DUP1 DUP7 AND DUP5 OR SWAP3 POP POP POP SWAP4 SWAP3 POP POP POP JUMP JUMPDEST PUSH1 0x0 DUP2 SWAP1 POP SWAP2 SWAP1 POP JUMP JUMPDEST PUSH1 0x0 PUSH2 0x220B PUSH2 0x2206 PUSH2 0x2201 DUP5 PUSH2 0x188E JUMP JUMPDEST PUSH2 0x21E6 JUMP JUMPDEST PUSH2 0x188E JUMP JUMPDEST SWAP1 POP SWAP2 SWAP1 POP JUMP JUMPDEST PUSH1 0x0 DUP2 SWAP1 POP SWAP2 SWAP1 POP JUMP JUMPDEST PUSH2 0x2225 DUP4 PUSH2 0x21F0 JUMP JUMPDEST PUSH2 0x2239 PUSH2 0x2231 DUP3 PUSH2 0x2212 JUMP JUMPDEST DUP5 DUP5 SLOAD PUSH2 0x2194 JUMP JUMPDEST DUP3 SSTORE POP POP POP POP JUMP JUMPDEST PUSH1 0x0 SWAP1 JUMP JUMPDEST PUSH2 0x224E PUSH2 0x2241 JUMP JUMPDEST PUSH2 0x2259 DUP2 DUP5 DUP5 PUSH2 0x221C JUMP JUMPDEST POP POP POP JUMP JUMPDEST JUMPDEST DUP2 DUP2 LT ISZERO PUSH2 0x227D JUMPI PUSH2 0x2272 PUSH1 0x0 DUP3 PUSH2 0x2246 JUMP JUMPDEST PUSH1 0x1 DUP2 ADD SWAP1 POP PUSH2 0x225F JUMP JUMPDEST POP POP JUMP JUMPDEST PUSH1 0x1F DUP3 GT ISZERO PUSH2 0x22C2 JUMPI PUSH2 0x2293 DUP2 PUSH2 0x2162 JUMP JUMPDEST PUSH2 0x229C DUP5 PUSH2 0x2177 JUMP JUMPDEST DUP2 ADD PUSH1 0x20 DUP6 LT ISZERO PUSH2 0x22AB JUMPI DUP2 SWAP1 POP JUMPDEST PUSH2 0x22BF PUSH2 0x22B7 DUP6 PUSH2 0x2177 JUMP JUMPDEST DUP4 ADD DUP3 PUSH2 0x225E JUMP JUMPDEST POP POP JUMPDEST POP POP POP JUMP JUMPDEST PUSH1 0x0 DUP3 DUP3 SHR SWAP1 POP SWAP3 SWAP2 POP POP JUMP JUMPDEST PUSH1 0x0 PUSH2 0x22E5 PUSH1 0x0 NOT DUP5 PUSH1 0x8 MUL PUSH2 0x22C7 JUMP JUMPDEST NOT DUP1 DUP4 AND SWAP2 POP POP SWAP3 SWAP2 POP POP JUMP JUMPDEST PUSH1 0x0 PUSH2 0x22FE DUP4 DUP4 PUSH2 0x22D4 JUMP JUMPDEST SWAP2 POP DUP3 PUSH1 0x2 MUL DUP3 OR SWAP1 POP SWAP3 SWAP2 POP POP JUMP JUMPDEST PUSH2 0x2317 DUP3 PUSH2 0x17FE JUMP JUMPDEST PUSH8 0xFFFFFFFFFFFFFFFF DUP2 GT ISZERO PUSH2 0x2330 JUMPI PUSH2 0x232F PUSH2 0x1EB8 JUMP JUMPDEST JUMPDEST PUSH2 0x233A DUP3 SLOAD PUSH2 0x1F16 JUMP JUMPDEST PUSH2 0x2345 DUP3 DUP3 DUP6 PUSH2 0x2281 JUMP JUMPDEST PUSH1 0x0 PUSH1 0x20 SWAP1 POP PUSH1 0x1F DUP4 GT PUSH1 0x1 DUP2 EQ PUSH2 0x2378 JUMPI PUSH1 0x0 DUP5 ISZERO PUSH2 0x2366 JUMPI DUP3 DUP8 ADD MLOAD SWAP1 POP JUMPDEST PUSH2 0x2370 DUP6 DUP3 PUSH2 0x22F2 JUMP JUMPDEST DUP7 SSTORE POP PUSH2 0x23D8 JUMP JUMPDEST PUSH1 0x1F NOT DUP5 AND PUSH2 0x2386 DUP7 PUSH2 0x2162 JUMP JUMPDEST PUSH1 0x0 JUMPDEST DUP3 DUP2 LT ISZERO PUSH2 0x23AE JUMPI DUP5 DUP10 ADD MLOAD DUP3 SSTORE PUSH1 0x1 DUP3 ADD SWAP2 POP PUSH1 0x20 DUP6 ADD SWAP5 POP PUSH1 0x20 DUP2 ADD SWAP1 POP PUSH2 0x2389 JUMP JUMPDEST DUP7 DUP4 LT ISZERO PUSH2 0x23CB JUMPI DUP5 DUP10 ADD MLOAD PUSH2 0x23C7 PUSH1 0x1F DUP10 AND DUP3 PUSH2 0x22D4 JUMP JUMPDEST DUP4 SSTORE POP JUMPDEST PUSH1 0x1 PUSH1 0x2 DUP9 MUL ADD DUP9 SSTORE POP POP POP JUMPDEST POP POP POP POP POP POP JUMP JUMPDEST PUSH1 0x0 PUSH1 0x60 DUP3 ADD SWAP1 POP DUP2 DUP2 SUB PUSH1 0x0 DUP4 ADD MSTORE PUSH2 0x23FB DUP2 DUP8 DUP10 PUSH2 0x208E JUMP JUMPDEST SWAP1 POP DUP2 DUP2 SUB PUSH1 0x20 DUP4 ADD MSTORE PUSH2 0x2410 DUP2 DUP6 DUP8 PUSH2 0x208E JUMP JUMPDEST SWAP1 POP PUSH2 0x241F PUSH1 0x40 DUP4 ADD DUP5 PUSH2 0x1CCF JUMP JUMPDEST SWAP7 SWAP6 POP POP POP POP POP POP JUMP JUMPDEST PUSH1 0x0 PUSH1 0x40 DUP3 ADD SWAP1 POP DUP2 DUP2 SUB PUSH1 0x0 DUP4 ADD MSTORE PUSH2 0x2444 DUP2 DUP6 DUP8 PUSH2 0x208E JUMP JUMPDEST SWAP1 POP PUSH2 0x2453 PUSH1 0x20 DUP4 ADD DUP5 PUSH2 0x1CCF JUMP JUMPDEST SWAP5 SWAP4 POP POP POP POP JUMP JUMPDEST PUSH32 0x566F74657220616C726561647920726567697374657265640000000000000000 PUSH1 0x0 DUP3 ADD MSTORE POP JUMP JUMPDEST PUSH1 0x0 PUSH2 0x2491 PUSH1 0x18 DUP4 PUSH2 0x1D5C JUMP JUMPDEST SWAP2 POP PUSH2 0x249C DUP3 PUSH2 0x245B JUMP JUMPDEST PUSH1 0x20 DUP3 ADD SWAP1 POP SWAP2 SWAP1 POP JUMP JUMPDEST PUSH1 0x0 PUSH1 0x20 DUP3 ADD SWAP1 POP DUP2 DUP2 SUB PUSH1 0x0 DUP4 ADD MSTORE PUSH2 0x24C0 DUP2 PUSH2 0x2484 JUMP JUMPDEST SWAP1 POP SWAP2 SWAP1 POP JUMP JUMPDEST PUSH32 0x566F74696E6720686173206E6F74206265656E20737461727465640000000000 PUSH1 0x0 DUP3 ADD MSTORE POP JUMP JUMPDEST PUSH1 0x0 PUSH2 0x24FD PUSH1 0x1B DUP4 PUSH2 0x1D5C JUMP JUMPDEST SWAP2 POP PUSH2 0x2508 DUP3 PUSH2 0x24C7 JUMP JUMPDEST PUSH1 0x20 DUP3 ADD SWAP1 POP SWAP2 SWAP1 POP JUMP JUMPDEST PUSH1 0x0 PUSH1 0x20 DUP3 ADD SWAP1 POP DUP2 DUP2 SUB PUSH1 0x0 DUP4 ADD MSTORE PUSH2 0x252C DUP2 PUSH2 0x24F0 JUMP JUMPDEST SWAP1 POP SWAP2 SWAP1 POP JUMP JUMPDEST PUSH32 0x566F746572206E6F742072656769737465726564000000000000000000000000 PUSH1 0x0 DUP3 ADD MSTORE POP JUMP JUMPDEST PUSH1 0x0 PUSH2 0x2569 PUSH1 0x14 DUP4 PUSH2 0x1D5C JUMP JUMPDEST SWAP2 POP PUSH2 0x2574 DUP3 PUSH2 0x2533 JUMP JUMPDEST PUSH1 0x20 DUP3 ADD SWAP1 POP SWAP2 SWAP1 POP JUMP JUMPDEST PUSH1 0x0 PUSH1 0x20 DUP3 ADD SWAP1 POP DUP2 DUP2 SUB PUSH1 0x0 DUP4 ADD MSTORE PUSH2 0x2598 DUP2 PUSH2 0x255C JUMP JUMPDEST SWAP1 POP SWAP2 SWAP1 POP JUMP JUMPDEST PUSH32 0x566F7465722068617320766F7465640000000000000000000000000000000000 PUSH1 0x0 DUP3 ADD MSTORE POP JUMP JUMPDEST PUSH1 0x0 PUSH2 0x25D5 PUSH1 0xF DUP4 PUSH2 0x1D5C JUMP JUMPDEST SWAP2 POP PUSH2 0x25E0 DUP3 PUSH2 0x259F JUMP JUMPDEST PUSH1 0x20 DUP3 ADD SWAP1 POP SWAP2 SWAP1 POP JUMP JUMPDEST PUSH1 0x0 PUSH1 0x20 DUP3 ADD SWAP1 POP DUP2 DUP2 SUB PUSH1 0x0 DUP4 ADD MSTORE PUSH2 0x2604 DUP2 PUSH2 0x25C8 JUMP JUMPDEST SWAP1 POP SWAP2 SWAP1 POP JUMP JUMPDEST PUSH1 0x0 PUSH2 0x2616 DUP3 PUSH2 0x188E JUMP JUMPDEST SWAP2 POP PUSH2 0x2621 DUP4 PUSH2 0x188E JUMP JUMPDEST SWAP3 POP DUP3 DUP3 ADD SWAP1 POP DUP1 DUP3 GT ISZERO PUSH2 0x2639 JUMPI PUSH2 0x2638 PUSH2 0x1F76 JUMP JUMPDEST JUMPDEST SWAP3 SWAP2 POP POP JUMP JUMPDEST PUSH32 0x4F776E61626C653A206E6577206F776E657220697320746865207A65726F2061 PUSH1 0x0 DUP3 ADD MSTORE PUSH32 0x6464726573730000000000000000000000000000000000000000000000000000 PUSH1 0x20 DUP3 ADD MSTORE POP JUMP JUMPDEST PUSH1 0x0 PUSH2 0x269B PUSH1 0x26 DUP4 PUSH2 0x1D5C JUMP JUMPDEST SWAP2 POP PUSH2 0x26A6 DUP3 PUSH2 0x263F JUMP JUMPDEST PUSH1 0x40 DUP3 ADD SWAP1 POP SWAP2 SWAP1 POP JUMP JUMPDEST PUSH1 0x0 PUSH1 0x20 DUP3 ADD SWAP1 POP DUP2 DUP2 SUB PUSH1 0x0 DUP4 ADD MSTORE PUSH2 0x26CA DUP2 PUSH2 0x268E JUMP JUMPDEST SWAP1 POP SWAP2 SWAP1 POP JUMP JUMPDEST PUSH32 0x4F776E61626C653A2063616C6C6572206973206E6F7420746865206F776E6572 PUSH1 0x0 DUP3 ADD MSTORE POP JUMP JUMPDEST PUSH1 0x0 PUSH2 0x2707 PUSH1 0x20 DUP4 PUSH2 0x1D5C JUMP JUMPDEST SWAP2 POP PUSH2 0x2712 DUP3 PUSH2 0x26D1 JUMP JUMPDEST PUSH1 0x20 DUP3 ADD SWAP1 POP SWAP2 SWAP1 POP JUMP JUMPDEST PUSH1 0x0 PUSH1 0x20 DUP3 ADD SWAP1 POP DUP2 DUP2 SUB PUSH1 0x0 DUP4 ADD MSTORE PUSH2 0x2736 DUP2 PUSH2 0x26FA JUMP JUMPDEST SWAP1 POP SWAP2 SWAP1 POP JUMP JUMPDEST PUSH1 0x0 PUSH1 0x40 DUP3 ADD SWAP1 POP DUP2 DUP2 SUB PUSH1 0x0 DUP4 ADD MSTORE PUSH2 0x2757 DUP2 DUP6 PUSH2 0x1D6D JUMP JUMPDEST SWAP1 POP PUSH2 0x2766 PUSH1 0x20 DUP4 ADD DUP5 PUSH2 0x1CCF JUMP JUMPDEST SWAP4 SWAP3 POP POP POP JUMP INVALID LOG2 PUSH5 0x6970667358 0x22 SLT KECCAK256 0x25 DUP7 DUP13 0xE7 NUMBER 0xE 0xB8 SWAP8 0xB2 0xB3 0xD3 LOG3 EQ 0xEF 0xDE PUSH26 0x72071EA75FB78BE4A44D247F594F47AB64736F6C634300081100 CALLER "},"methodIdentifiers":{"VotingStage()":"3772eeba","candidateIds()":"ad2b657a","finishVoting()":"f9094303","getCandidates()":"06a49fce","getWinner()":"8e7ea5b2","hasVoted(string,uint256)":"6c093e7e","isCandidateRegistered(bytes32)":"cee78807","isVoterRegistered(string,uint256)":"e4c20b1c","owner()":"8da5cb5b","registerCandidate(string,string)":"0dbce4dd","registerVoter(string,uint256)":"e661ea5f","renounceOwnership()":"715018a6","startVoting()":"1ec6b60a","stopVoting()":"fab2f86b","transferOwnership(address)":"f2fde38b","vote(uint256,string,uint256)":"f0f45457","winner()":"dfbf53ae"}}}}}