{
  "_format": "hh-sol-artifact-1",
  "contractName": "Voting",
  "sourceName": "contracts/Voting.sol",
  "abi": [
    {
      "inputs": [],
      "stateMutability": "nonpayable",
      "type": "constructor"
    },
    {
      "anonymous": false,
      "inputs": [
        {
          "indexed": false,
          "internalType": "string",
          "name": "firstName",
          "type": "string"
        },
        {
          "indexed": false,
          "internalType": "string",
          "name": "lastName",
          "type": "string"
        },
        {
          "indexed": false,
          "internalType": "uint256",
          "name": "id",
          "type": "uint256"
        }
      ],
      "name": "CandidateRegistered",
      "type": "event"
    },
    {
      "anonymous": false,
      "inputs": [
        {
          "indexed": true,
          "internalType": "address",
          "name": "previousOwner",
          "type": "address"
        },
        {
          "indexed": true,
          "internalType": "address",
          "name": "newOwner",
          "type": "address"
        }
      ],
      "name": "OwnershipTransferred",
      "type": "event"
    },
    {
      "anonymous": false,
      "inputs": [
        {
          "indexed": false,
          "internalType": "string",
          "name": "firstName",
          "type": "string"
        },
        {
          "indexed": false,
          "internalType": "uint256",
          "name": "id",
          "type": "uint256"
        }
      ],
      "name": "VoterRegistered",
      "type": "event"
    },
    {
      "anonymous": false,
      "inputs": [
        {
          "indexed": false,
          "internalType": "string",
          "name": "firstName",
          "type": "string"
        },
        {
          "indexed": false,
          "internalType": "string",
          "name": "lastName",
          "type": "string"
        },
        {
          "indexed": false,
          "internalType": "uint256",
          "name": "voteCount",
          "type": "uint256"
        }
      ],
      "name": "WinnerAnnounced",
      "type": "event"
    },
    {
      "inputs": [],
      "name": "VotingStage",
      "outputs": [
        {
          "internalType": "enum Voting.Stage",
          "name": "",
          "type": "uint8"
        }
      ],
      "stateMutability": "view",
      "type": "function"
    },
    {
      "inputs": [],
      "name": "candidateIds",
      "outputs": [
        {
          "internalType": "uint256",
          "name": "_value",
          "type": "uint256"
        }
      ],
      "stateMutability": "view",
      "type": "function"
    },
    {
      "inputs": [],
      "name": "finishVoting",
      "outputs": [],
      "stateMutability": "nonpayable",
      "type": "function"
    },
    {
      "inputs": [],
      "name": "getCandidates",
      "outputs": [
        {
          "components": [
            {
              "internalType": "string",
              "name": "firstName",
              "type": "string"
            },
            {
              "internalType": "string",
              "name": "lastName",
              "type": "string"
            },
            {
              "internalType": "uint256",
              "name": "voteCount",
              "type": "uint256"
            }
          ],
          "internalType": "struct Voting.Candidate[]",
          "name": "",
          "type": "tuple[]"
        }
      ],
      "stateMutability": "view",
      "type": "function"
    },
    {
      "inputs": [],
      "name": "getWinner",
      "outputs": [
        {
          "components": [
            {
              "internalType": "string",
              "name": "firstName",
              "type": "string"
            },
            {
              "internalType": "string",
              "name": "lastName",
              "type": "string"
            },
            {
              "internalType": "uint256",
              "name": "voteCount",
              "type": "uint256"
            }
          ],
          "internalType": "struct Voting.Candidate",
          "name": "",
          "type": "tuple"
        }
      ],
      "stateMutability": "view",
      "type": "function"
    },
    {
      "inputs": [
        {
          "internalType": "string",
          "name": "_Name",
          "type": "string"
        },
        {
          "internalType": "uint256",
          "name": "_id",
          "type": "uint256"
        }
      ],
      "name": "hasVoted",
      "outputs": [
        {
          "internalType": "bool",
          "name": "",
          "type": "bool"
        }
      ],
      "stateMutability": "view",
      "type": "function"
    },
    {
      "inputs": [
        {
          "internalType": "bytes32",
          "name": "",
          "type": "bytes32"
        }
      ],
      "name": "isCandidateRegistered",
      "outputs": [
        {
          "internalType": "bool",
          "name": "",
          "type": "bool"
        }
      ],
      "stateMutability": "view",
      "type": "function"
    },
    {
      "inputs": [
        {
          "internalType": "string",
          "name": "_Name",
          "type": "string"
        },
        {
          "internalType": "uint256",
          "name": "_id",
          "type": "uint256"
        }
      ],
      "name": "isVoterRegistered",
      "outputs": [
        {
          "internalType": "bool",
          "name": "",
          "type": "bool"
        }
      ],
      "stateMutability": "view",
      "type": "function"
    },
    {
      "inputs": [],
      "name": "owner",
      "outputs": [
        {
          "internalType": "address",
          "name": "",
          "type": "address"
        }
      ],
      "stateMutability": "view",
      "type": "function"
    },
    {
      "inputs": [
        {
          "internalType": "string",
          "name": "_firstName",
          "type": "string"
        },
        {
          "internalType": "string",
          "name": "_lastName",
          "type": "string"
        }
      ],
      "name": "registerCandidate",
      "outputs": [],
      "stateMutability": "nonpayable",
      "type": "function"
    },
    {
      "inputs": [
        {
          "internalType": "string",
          "name": "_Name",
          "type": "string"
        },
        {
          "internalType": "uint256",
          "name": "_id",
          "type": "uint256"
        }
      ],
      "name": "registerVoter",
      "outputs": [],
      "stateMutability": "nonpayable",
      "type": "function"
    },
    {
      "inputs": [],
      "name": "renounceOwnership",
      "outputs": [],
      "stateMutability": "nonpayable",
      "type": "function"
    },
    {
      "inputs": [],
      "name": "startVoting",
      "outputs": [],
      "stateMutability": "nonpayable",
      "type": "function"
    },
    {
      "inputs": [],
      "name": "stopVoting",
      "outputs": [],
      "stateMutability": "nonpayable",
      "type": "function"
    },
    {
      "inputs": [
        {
          "internalType": "address",
          "name": "newOwner",
          "type": "address"
        }
      ],
      "name": "transferOwnership",
      "outputs": [],
      "stateMutability": "nonpayable",
      "type": "function"
    },
    {
      "inputs": [
        {
          "internalType": "uint256",
          "name": "_id",
          "type": "uint256"
        },
        {
          "internalType": "string",
          "name": "_voterName",
          "type": "string"
        },
        {
          "internalType": "uint256",
          "name": "_voterid",
          "type": "uint256"
        }
      ],
      "name": "vote",
      "outputs": [],
      "stateMutability": "nonpayable",
      "type": "function"
    },
    {
      "inputs": [],
      "name": "winner",
      "outputs": [
        {
          "internalType": "string",
          "name": "firstName",
          "type": "string"
        },
        {
          "internalType": "string",
          "name": "lastName",
          "type": "string"
        },
        {
          "internalType": "uint256",
          "name": "voteCount",
          "type": "uint256"
        }
      ],
      "stateMutability": "view",
      "type": "function"
    }
  ],
  "bytecode": "0x60806040523480156200001157600080fd5b5062000032620000266200006660201b60201c565b6200006e60201b60201c565b6000600960006101000a81548160ff021916908360028111156200005b576200005a62000132565b5b021790555062000161565b600033905090565b60008060009054906101000a900473ffffffffffffffffffffffffffffffffffffffff169050816000806101000a81548173ffffffffffffffffffffffffffffffffffffffff021916908373ffffffffffffffffffffffffffffffffffffffff1602179055508173ffffffffffffffffffffffffffffffffffffffff168173ffffffffffffffffffffffffffffffffffffffff167f8be0079c531659141344cd1fd0a4f28419497f9722a3daafe3b4186f6b6457e060405160405180910390a35050565b7f4e487b7100000000000000000000000000000000000000000000000000000000600052602160045260246000fd5b6127a380620001716000396000f3fe608060405234801561001057600080fd5b506004361061010b5760003560e01c8063ad2b657a116100a2578063e661ea5f11610071578063e661ea5f14610286578063f0f45457146102a2578063f2fde38b146102be578063f9094303146102da578063fab2f86b146102e45761010b565b8063ad2b657a146101e8578063cee7880714610206578063dfbf53ae14610236578063e4c20b1c146102565761010b565b80636c093e7e116100de5780636c093e7e14610172578063715018a6146101a25780638da5cb5b146101ac5780638e7ea5b2146101ca5761010b565b806306a49fce146101105780630dbce4dd1461012e5780631ec6b60a1461014a5780633772eeba14610154575b600080fd5b6101186102ee565b6040516101259190611994565b60405180910390f35b61014860048036038101906101439190611a25565b6104fc565b005b6101526107c6565b005b61015c6107fb565b6040516101699190611b1d565b60405180910390f35b61018c60048036038101906101879190611b64565b61080e565b6040516101999190611bdf565b60405180910390f35b6101aa610927565b005b6101b461093b565b6040516101c19190611c3b565b60405180910390f35b6101d2610964565b6040516101df9190611cad565b60405180910390f35b6101f0610aac565b6040516101fd9190611cde565b60405180910390f35b610220600480360381019061021b9190611d2f565b610ab8565b60405161022d9190611bdf565b60405180910390f35b61023e610ad8565b60405161024d93929190611da6565b60405180910390f35b610270600480360381019061026b9190611b64565b610c00565b60405161027d9190611bdf565b60405180910390f35b6102a0600480360381019061029b9190611b64565b610c5b565b005b6102bc60048036038101906102b79190611deb565b610e35565b005b6102d860048036038101906102d39190611e8b565b61115d565b005b6102e26111e0565b005b6102ec6114b0565b005b606060006102fc60016114e5565b67ffffffffffffffff81111561031557610314611eb8565b5b60405190808252806020026020018201604052801561034e57816020015b61033b6117b1565b8152602001906001900390816103335790505b50905061036361035e60016114e5565b6114f3565b60005b61037060016114e5565b8110156104f457600660008281526020019081526020016000206040518060600160405290816000820180546103a590611f16565b80601f01602080910402602001604051908101604052809291908181526020018280546103d190611f16565b801561041e5780601f106103f35761010080835404028352916020019161041e565b820191906000526020600020905b81548152906001019060200180831161040157829003601f168201915b5050505050815260200160018201805461043790611f16565b80601f016020809104026020016040519081016040528092919081815260200182805461046390611f16565b80156104b05780601f10610485576101008083540402835291602001916104b0565b820191906000526020600020905b81548152906001019060200180831161049357829003601f168201915b505050505081526020016002820154815250508282815181106104d6576104d5611f47565b5b602002602001018190525080806104ec90611fa5565b915050610366565b508091505090565b61050461158c565b6000600281111561051857610517611aa6565b5b600960009054906101000a900460ff16600281111561053a57610539611aa6565b5b1461057a576040517f08c379a00000000000000000000000000000000000000000000000000000000081526004016105719061205f565b60405180910390fd5b60008484848460405160200161059394939291906120bb565b6040516020818303038152906040528051906020012090506005600082815260200190815260200160002060009054906101000a900460ff161561060c576040517f08c379a000000000000000000000000000000000000000000000000000000000815260040161060390612142565b60405180910390fd5b600061061860016114e5565b90506106596040518060400160405280600b81526020017f43616e64696461746549640000000000000000000000000000000000000000008152508261160a565b604051806060016040528087878080601f016020809104026020016040519081016040528093929190818152602001838380828437600081840152601f19601f82011690508083019250505050505050815260200185858080601f016020809104026020016040519081016040528093929190818152602001838380828437600081840152601f19601f8201169050808301925050505050505081526020016000815250600660008381526020019081526020016000206000820151816000019081610725919061230e565b50602082015181600101908161073b919061230e565b506040820151816002015590505061075360016116a6565b60016005600084815260200190815260200160002060006101000a81548160ff0219169083151502179055507f630c61cb55f1dc89f589fbe410605e5759f043dcb3f202ca3270b84a1567840086868686856040516107b69594939291906123e0565b60405180910390a1505050505050565b6107ce61158c565b6001600960006101000a81548160ff021916908360028111156107f4576107f3611aa6565b5b0217905550565b600960009054906101000a900460ff1681565b60008084848460405160200161082693929190612429565b60405160208183030381529060405280519060200120905060006008600083815260200190815260200160002060405180606001604052908160008201805461086e90611f16565b80601f016020809104026020016040519081016040528092919081815260200182805461089a90611f16565b80156108e75780601f106108bc576101008083540402835291602001916108e7565b820191906000526020600020905b8154815290600101906020018083116108ca57829003601f168201915b50505050508152602001600182015481526020016002820160009054906101000a900460ff16151515158152505090508060400151925050509392505050565b61092f61158c565b61093960006116bc565b565b60008060009054906101000a900473ffffffffffffffffffffffffffffffffffffffff16905090565b61096c6117b1565b600260405180606001604052908160008201805461098990611f16565b80601f01602080910402602001604051908101604052809291908181526020018280546109b590611f16565b8015610a025780601f106109d757610100808354040283529160200191610a02565b820191906000526020600020905b8154815290600101906020018083116109e557829003601f168201915b50505050508152602001600182018054610a1b90611f16565b80601f0160208091040260200160405190810160405280929190818152602001828054610a4790611f16565b8015610a945780601f10610a6957610100808354040283529160200191610a94565b820191906000526020600020905b815481529060010190602001808311610a7757829003601f168201915b50505050508152602001600282015481525050905090565b60018060000154905081565b60056020528060005260406000206000915054906101000a900460ff1681565b6002806000018054610ae990611f16565b80601f0160208091040260200160405190810160405280929190818152602001828054610b1590611f16565b8015610b625780601f10610b3757610100808354040283529160200191610b62565b820191906000526020600020905b815481529060010190602001808311610b4557829003601f168201915b505050505090806001018054610b7790611f16565b80601f0160208091040260200160405190810160405280929190818152602001828054610ba390611f16565b8015610bf05780601f10610bc557610100808354040283529160200191610bf0565b820191906000526020600020905b815481529060010190602001808311610bd357829003601f168201915b5050505050908060020154905083565b600080848484604051602001610c1893929190612429565b6040516020818303038152906040528051906020012090506007600082815260200190815260200160002060009054906101000a900460ff169150509392505050565b600280811115610c6e57610c6d611aa6565b5b600960009054906101000a900460ff166002811115610c9057610c8f611aa6565b5b14610e3057610ca0838383610c00565b15610ce0576040517f08c379a0000000000000000000000000000000000000000000000000000000008152600401610cd7906124a7565b60405180910390fd5b6000838383604051602001610cf793929190612429565b604051602081830303815290604052805190602001209050604051806060016040528085858080601f016020809104026020016040519081016040528093929190818152602001838380828437600081840152601f19601f82011690508083019250505050505050815260200183815260200160001515815250600860008381526020019081526020016000206000820151816000019081610d99919061230e565b506020820151816001015560408201518160020160006101000a81548160ff02191690831515021790555090505060016007600083815260200190815260200160002060006101000a81548160ff0219169083151502179055507feb1c9ba665af787ad540b47d28e45866b8254b9fbdcf92ca225be532cf2b60af848484604051610e2693929190612429565b60405180910390a1505b505050565b60016002811115610e4957610e48611aa6565b5b600960009054906101000a900460ff166002811115610e6b57610e6a611aa6565b5b14610eab576040517f08c379a0000000000000000000000000000000000000000000000000000000008152600401610ea290612513565b60405180910390fd5b610eb6838383610c00565b610ef5576040517f08c379a0000000000000000000000000000000000000000000000000000000008152600401610eec9061257f565b60405180910390fd5b610f0083838361080e565b15610f40576040517f08c379a0000000000000000000000000000000000000000000000000000000008152600401610f37906125eb565b60405180910390fd5b600060066000868152602001908152602001600020604051806060016040529081600082018054610f7090611f16565b80601f0160208091040260200160405190810160405280929190818152602001828054610f9c90611f16565b8015610fe95780601f10610fbe57610100808354040283529160200191610fe9565b820191906000526020600020905b815481529060010190602001808311610fcc57829003601f168201915b5050505050815260200160018201805461100290611f16565b80601f016020809104026020016040519081016040528092919081815260200182805461102e90611f16565b801561107b5780601f106110505761010080835404028352916020019161107b565b820191906000526020600020905b81548152906001019060200180831161105e57829003601f168201915b5050505050815260200160028201548152505090506001816040018181516110a3919061260b565b91508181525050806006600087815260200190815260200160002060008201518160000190816110d3919061230e565b5060208201518160010190816110e9919061230e565b5060408201518160020155905050600084848460405160200161110e93929190612429565b60405160208183030381529060405280519060200120905060016008600083815260200190815260200160002060020160006101000a81548160ff021916908315150217905550505050505050565b61116561158c565b600073ffffffffffffffffffffffffffffffffffffffff168173ffffffffffffffffffffffffffffffffffffffff16036111d4576040517f08c379a00000000000000000000000000000000000000000000000000000000081526004016111cb906126b1565b60405180910390fd5b6111dd816116bc565b50565b6111e861158c565b600160028111156111fc576111fb611aa6565b5b600960009054906101000a900460ff16600281111561121e5761121d611aa6565b5b1461125e576040517f08c379a000000000000000000000000000000000000000000000000000000000815260040161125590612513565b60405180910390fd5b6112666117b1565b60005b61127360016114e5565b8110156113fe578160400151600660008381526020019081526020016000206002015411156113eb57600660008281526020019081526020016000206040518060600160405290816000820180546112ca90611f16565b80601f01602080910402602001604051908101604052809291908181526020018280546112f690611f16565b80156113435780601f1061131857610100808354040283529160200191611343565b820191906000526020600020905b81548152906001019060200180831161132657829003601f168201915b5050505050815260200160018201805461135c90611f16565b80601f016020809104026020016040519081016040528092919081815260200182805461138890611f16565b80156113d55780601f106113aa576101008083540402835291602001916113d5565b820191906000526020600020905b8154815290600101906020018083116113b857829003601f168201915b5050505050815260200160028201548152505091505b80806113f690611fa5565b915050611269565b506002600960006101000a81548160ff0219169083600281111561142557611424611aa6565b5b02179055508060026000820151816000019081611442919061230e565b506020820151816001019081611458919061230e565b50604082015181600201559050507fa70bb05a99fa7571a79a585dbe312eb7dd830aa3c12c6338416f97bfb39d11628160000151826020015183604001516040516114a593929190611da6565b60405180910390a150565b6114b861158c565b6002600960006101000a81548160ff021916908360028111156114de576114dd611aa6565b5b0217905550565b600081600001549050919050565b611589816040516024016115079190611cde565b6040516020818303038152906040527ff82c50f1000000000000000000000000000000000000000000000000000000007bffffffffffffffffffffffffffffffffffffffffffffffffffffffff19166020820180517bffffffffffffffffffffffffffffffffffffffffffffffffffffffff8381831617835250505050611780565b50565b6115946117a9565b73ffffffffffffffffffffffffffffffffffffffff166115b261093b565b73ffffffffffffffffffffffffffffffffffffffff1614611608576040517f08c379a00000000000000000000000000000000000000000000000000000000081526004016115ff9061271d565b60405180910390fd5b565b6116a2828260405160240161162092919061273d565b6040516020818303038152906040527fb60e72cc000000000000000000000000000000000000000000000000000000007bffffffffffffffffffffffffffffffffffffffffffffffffffffffff19166020820180517bffffffffffffffffffffffffffffffffffffffffffffffffffffffff8381831617835250505050611780565b5050565b6001816000016000828254019250508190555050565b60008060009054906101000a900473ffffffffffffffffffffffffffffffffffffffff169050816000806101000a81548173ffffffffffffffffffffffffffffffffffffffff021916908373ffffffffffffffffffffffffffffffffffffffff1602179055508173ffffffffffffffffffffffffffffffffffffffff168173ffffffffffffffffffffffffffffffffffffffff167f8be0079c531659141344cd1fd0a4f28419497f9722a3daafe3b4186f6b6457e060405160405180910390a35050565b60008151905060006a636f6e736f6c652e6c6f679050602083016000808483855afa5050505050565b600033905090565b60405180606001604052806060815260200160608152602001600081525090565b600081519050919050565b600082825260208201905092915050565b6000819050602082019050919050565b600081519050919050565b600082825260208201905092915050565b60005b8381101561183857808201518184015260208101905061181d565b60008484015250505050565b6000601f19601f8301169050919050565b6000611860826117fe565b61186a8185611809565b935061187a81856020860161181a565b61188381611844565b840191505092915050565b6000819050919050565b6118a18161188e565b82525050565b600060608301600083015184820360008601526118c48282611855565b915050602083015184820360208601526118de8282611855565b91505060408301516118f36040860182611898565b508091505092915050565b600061190a83836118a7565b905092915050565b6000602082019050919050565b600061192a826117d2565b61193481856117dd565b935083602082028501611946856117ee565b8060005b85811015611982578484038952815161196385826118fe565b945061196e83611912565b925060208a0199505060018101905061194a565b50829750879550505050505092915050565b600060208201905081810360008301526119ae818461191f565b905092915050565b600080fd5b600080fd5b600080fd5b600080fd5b600080fd5b60008083601f8401126119e5576119e46119c0565b5b8235905067ffffffffffffffff811115611a0257611a016119c5565b5b602083019150836001820283011115611a1e57611a1d6119ca565b5b9250929050565b60008060008060408587031215611a3f57611a3e6119b6565b5b600085013567ffffffffffffffff811115611a5d57611a5c6119bb565b5b611a69878288016119cf565b9450945050602085013567ffffffffffffffff811115611a8c57611a8b6119bb565b5b611a98878288016119cf565b925092505092959194509250565b7f4e487b7100000000000000000000000000000000000000000000000000000000600052602160045260246000fd5b60038110611ae657611ae5611aa6565b5b50565b6000819050611af782611ad5565b919050565b6000611b0782611ae9565b9050919050565b611b1781611afc565b82525050565b6000602082019050611b326000830184611b0e565b92915050565b611b418161188e565b8114611b4c57600080fd5b50565b600081359050611b5e81611b38565b92915050565b600080600060408486031215611b7d57611b7c6119b6565b5b600084013567ffffffffffffffff811115611b9b57611b9a6119bb565b5b611ba7868287016119cf565b93509350506020611bba86828701611b4f565b9150509250925092565b60008115159050919050565b611bd981611bc4565b82525050565b6000602082019050611bf46000830184611bd0565b92915050565b600073ffffffffffffffffffffffffffffffffffffffff82169050919050565b6000611c2582611bfa565b9050919050565b611c3581611c1a565b82525050565b6000602082019050611c506000830184611c2c565b92915050565b60006060830160008301518482036000860152611c738282611855565b91505060208301518482036020860152611c8d8282611855565b9150506040830151611ca26040860182611898565b508091505092915050565b60006020820190508181036000830152611cc78184611c56565b905092915050565b611cd88161188e565b82525050565b6000602082019050611cf36000830184611ccf565b92915050565b6000819050919050565b611d0c81611cf9565b8114611d1757600080fd5b50565b600081359050611d2981611d03565b92915050565b600060208284031215611d4557611d446119b6565b5b6000611d5384828501611d1a565b91505092915050565b600082825260208201905092915050565b6000611d78826117fe565b611d828185611d5c565b9350611d9281856020860161181a565b611d9b81611844565b840191505092915050565b60006060820190508181036000830152611dc08186611d6d565b90508181036020830152611dd48185611d6d565b9050611de36040830184611ccf565b949350505050565b60008060008060608587031215611e0557611e046119b6565b5b6000611e1387828801611b4f565b945050602085013567ffffffffffffffff811115611e3457611e336119bb565b5b611e40878288016119cf565b93509350506040611e5387828801611b4f565b91505092959194509250565b611e6881611c1a565b8114611e7357600080fd5b50565b600081359050611e8581611e5f565b92915050565b600060208284031215611ea157611ea06119b6565b5b6000611eaf84828501611e76565b91505092915050565b7f4e487b7100000000000000000000000000000000000000000000000000000000600052604160045260246000fd5b7f4e487b7100000000000000000000000000000000000000000000000000000000600052602260045260246000fd5b60006002820490506001821680611f2e57607f821691505b602082108103611f4157611f40611ee7565b5b50919050565b7f4e487b7100000000000000000000000000000000000000000000000000000000600052603260045260246000fd5b7f4e487b7100000000000000000000000000000000000000000000000000000000600052601160045260246000fd5b6000611fb08261188e565b91507fffffffffffffffffffffffffffffffffffffffffffffffffffffffffffffffff8203611fe257611fe1611f76565b5b600182019050919050565b7f566f74696e672073746167652073686f756c6420626520494e495449414c495a60008201527f4544000000000000000000000000000000000000000000000000000000000000602082015250565b6000612049602283611d5c565b915061205482611fed565b604082019050919050565b600060208201905081810360008301526120788161203c565b9050919050565b82818337600083830152505050565b600061209a8385611d5c565b93506120a783858461207f565b6120b083611844565b840190509392505050565b600060408201905081810360008301526120d681868861208e565b905081810360208301526120eb81848661208e565b905095945050505050565b7f43616e64696461746520616c7265616479207265676973746572656400000000600082015250565b600061212c601c83611d5c565b9150612137826120f6565b602082019050919050565b6000602082019050818103600083015261215b8161211f565b9050919050565b60008190508160005260206000209050919050565b60006020601f8301049050919050565b600082821b905092915050565b6000600883026121c47fffffffffffffffffffffffffffffffffffffffffffffffffffffffffffffffff82612187565b6121ce8683612187565b95508019841693508086168417925050509392505050565b6000819050919050565b600061220b6122066122018461188e565b6121e6565b61188e565b9050919050565b6000819050919050565b612225836121f0565b61223961223182612212565b848454612194565b825550505050565b600090565b61224e612241565b61225981848461221c565b505050565b5b8181101561227d57612272600082612246565b60018101905061225f565b5050565b601f8211156122c25761229381612162565b61229c84612177565b810160208510156122ab578190505b6122bf6122b785612177565b83018261225e565b50505b505050565b600082821c905092915050565b60006122e5600019846008026122c7565b1980831691505092915050565b60006122fe83836122d4565b9150826002028217905092915050565b612317826117fe565b67ffffffffffffffff8111156123305761232f611eb8565b5b61233a8254611f16565b612345828285612281565b600060209050601f8311600181146123785760008415612366578287015190505b61237085826122f2565b8655506123d8565b601f19841661238686612162565b60005b828110156123ae57848901518255600182019150602085019450602081019050612389565b868310156123cb57848901516123c7601f8916826122d4565b8355505b6001600288020188555050505b505050505050565b600060608201905081810360008301526123fb81878961208e565b9050818103602083015261241081858761208e565b905061241f6040830184611ccf565b9695505050505050565b6000604082019050818103600083015261244481858761208e565b90506124536020830184611ccf565b949350505050565b7f566f74657220616c726561647920726567697374657265640000000000000000600082015250565b6000612491601883611d5c565b915061249c8261245b565b602082019050919050565b600060208201905081810360008301526124c081612484565b9050919050565b7f566f74696e6720686173206e6f74206265656e20737461727465640000000000600082015250565b60006124fd601b83611d5c565b9150612508826124c7565b602082019050919050565b6000602082019050818103600083015261252c816124f0565b9050919050565b7f566f746572206e6f742072656769737465726564000000000000000000000000600082015250565b6000612569601483611d5c565b915061257482612533565b602082019050919050565b600060208201905081810360008301526125988161255c565b9050919050565b7f566f7465722068617320766f7465640000000000000000000000000000000000600082015250565b60006125d5600f83611d5c565b91506125e08261259f565b602082019050919050565b60006020820190508181036000830152612604816125c8565b9050919050565b60006126168261188e565b91506126218361188e565b925082820190508082111561263957612638611f76565b5b92915050565b7f4f776e61626c653a206e6577206f776e657220697320746865207a65726f206160008201527f6464726573730000000000000000000000000000000000000000000000000000602082015250565b600061269b602683611d5c565b91506126a68261263f565b604082019050919050565b600060208201905081810360008301526126ca8161268e565b9050919050565b7f4f776e61626c653a2063616c6c6572206973206e6f7420746865206f776e6572600082015250565b6000612707602083611d5c565b9150612712826126d1565b602082019050919050565b60006020820190508181036000830152612736816126fa565b9050919050565b600060408201905081810360008301526127578185611d6d565b90506127666020830184611ccf565b939250505056fea264697066735822122025868ce7430eb897b2b3d3a314efde7972071ea75fb78be4a44d247f594f47ab64736f6c63430008110033",
  "linkReferences": {},
  "deployedLinkReferences": {}
}